{
  "contractName": "Anarchapulco",
  "abi": [
    {
      "inputs": [],
      "stateMutability": "nonpayable",
      "type": "constructor"
    },
    {
      "anonymous": false,
      "inputs": [
        {
          "indexed": true,
          "internalType": "address",
          "name": "owner",
          "type": "address"
        },
        {
          "indexed": true,
          "internalType": "address",
          "name": "approved",
          "type": "address"
        },
        {
          "indexed": true,
          "internalType": "uint256",
          "name": "tokenId",
          "type": "uint256"
        }
      ],
      "name": "Approval",
      "type": "event"
    },
    {
      "anonymous": false,
      "inputs": [
        {
          "indexed": true,
          "internalType": "address",
          "name": "owner",
          "type": "address"
        },
        {
          "indexed": true,
          "internalType": "address",
          "name": "operator",
          "type": "address"
        },
        {
          "indexed": false,
          "internalType": "bool",
          "name": "approved",
          "type": "bool"
        }
      ],
      "name": "ApprovalForAll",
      "type": "event"
    },
    {
      "anonymous": false,
      "inputs": [
        {
          "indexed": true,
          "internalType": "address",
          "name": "previousOwner",
          "type": "address"
        },
        {
          "indexed": true,
          "internalType": "address",
          "name": "newOwner",
          "type": "address"
        }
      ],
      "name": "OwnershipTransferred",
      "type": "event"
    },
    {
      "anonymous": false,
      "inputs": [
        {
          "indexed": true,
          "internalType": "address",
          "name": "from",
          "type": "address"
        },
        {
          "indexed": true,
          "internalType": "address",
          "name": "to",
          "type": "address"
        },
        {
          "indexed": true,
          "internalType": "uint256",
          "name": "tokenId",
          "type": "uint256"
        }
      ],
      "name": "Transfer",
      "type": "event"
    },
    {
      "inputs": [
        {
          "internalType": "address",
          "name": "to",
          "type": "address"
        },
        {
          "internalType": "uint256",
          "name": "tokenId",
          "type": "uint256"
        }
      ],
      "name": "approve",
      "outputs": [],
      "stateMutability": "nonpayable",
      "type": "function"
    },
    {
      "inputs": [
        {
          "internalType": "address",
          "name": "owner",
          "type": "address"
        }
      ],
      "name": "balanceOf",
      "outputs": [
        {
          "internalType": "uint256",
          "name": "",
          "type": "uint256"
        }
      ],
      "stateMutability": "view",
      "type": "function",
      "constant": true
    },
    {
      "inputs": [],
      "name": "baseURI",
      "outputs": [
        {
          "internalType": "string",
          "name": "",
          "type": "string"
        }
      ],
      "stateMutability": "view",
      "type": "function",
      "constant": true
    },
    {
      "inputs": [
        {
          "internalType": "uint256",
          "name": "tokenId",
          "type": "uint256"
        }
      ],
      "name": "getApproved",
      "outputs": [
        {
          "internalType": "address",
          "name": "",
          "type": "address"
        }
      ],
      "stateMutability": "view",
      "type": "function",
      "constant": true
    },
    {
      "inputs": [
        {
          "internalType": "address",
          "name": "owner",
          "type": "address"
        },
        {
          "internalType": "address",
          "name": "operator",
          "type": "address"
        }
      ],
      "name": "isApprovedForAll",
      "outputs": [
        {
          "internalType": "bool",
          "name": "",
          "type": "bool"
        }
      ],
      "stateMutability": "view",
      "type": "function",
      "constant": true
    },
    {
      "inputs": [],
      "name": "name",
      "outputs": [
        {
          "internalType": "string",
          "name": "",
          "type": "string"
        }
      ],
      "stateMutability": "view",
      "type": "function",
      "constant": true
    },
    {
      "inputs": [],
      "name": "owner",
      "outputs": [
        {
          "internalType": "address",
          "name": "",
          "type": "address"
        }
      ],
      "stateMutability": "view",
      "type": "function",
      "constant": true
    },
    {
      "inputs": [
        {
          "internalType": "uint256",
          "name": "tokenId",
          "type": "uint256"
        }
      ],
      "name": "ownerOf",
      "outputs": [
        {
          "internalType": "address",
          "name": "",
          "type": "address"
        }
      ],
      "stateMutability": "view",
      "type": "function",
      "constant": true
    },
    {
      "inputs": [],
      "name": "renounceOwnership",
      "outputs": [],
      "stateMutability": "nonpayable",
      "type": "function"
    },
    {
      "inputs": [
        {
          "internalType": "address",
          "name": "from",
          "type": "address"
        },
        {
          "internalType": "address",
          "name": "to",
          "type": "address"
        },
        {
          "internalType": "uint256",
          "name": "tokenId",
          "type": "uint256"
        }
      ],
      "name": "safeTransferFrom",
      "outputs": [],
      "stateMutability": "nonpayable",
      "type": "function"
    },
    {
      "inputs": [
        {
          "internalType": "address",
          "name": "from",
          "type": "address"
        },
        {
          "internalType": "address",
          "name": "to",
          "type": "address"
        },
        {
          "internalType": "uint256",
          "name": "tokenId",
          "type": "uint256"
        },
        {
          "internalType": "bytes",
          "name": "_data",
          "type": "bytes"
        }
      ],
      "name": "safeTransferFrom",
      "outputs": [],
      "stateMutability": "nonpayable",
      "type": "function"
    },
    {
      "inputs": [
        {
          "internalType": "address",
          "name": "operator",
          "type": "address"
        },
        {
          "internalType": "bool",
          "name": "approved",
          "type": "bool"
        }
      ],
      "name": "setApprovalForAll",
      "outputs": [],
      "stateMutability": "nonpayable",
      "type": "function"
    },
    {
      "inputs": [
        {
          "internalType": "uint256",
          "name": "",
          "type": "uint256"
        }
      ],
      "name": "speakers",
      "outputs": [
        {
          "internalType": "uint256",
          "name": "libertyLevel",
          "type": "uint256"
        },
        {
          "internalType": "uint256",
          "name": "anarchyLevel",
          "type": "uint256"
        },
        {
          "internalType": "uint256",
          "name": "tacosLevel",
          "type": "uint256"
        },
        {
          "internalType": "uint256",
          "name": "kissesLevel",
          "type": "uint256"
        },
        {
          "internalType": "uint256",
          "name": "bitcoinLevel",
          "type": "uint256"
        },
        {
          "internalType": "uint256",
          "name": "privacyLevel",
          "type": "uint256"
        },
        {
          "internalType": "uint256",
          "name": "spirtualityLevel",
          "type": "uint256"
        },
        {
          "internalType": "uint256",
          "name": "agoraLevel",
          "type": "uint256"
        },
        {
          "internalType": "uint256",
          "name": "ogLevel",
          "type": "uint256"
        },
        {
          "internalType": "string",
          "name": "name",
          "type": "string"
        }
      ],
      "stateMutability": "view",
      "type": "function",
      "constant": true
    },
    {
      "inputs": [
        {
          "internalType": "bytes4",
          "name": "interfaceId",
          "type": "bytes4"
        }
      ],
      "name": "supportsInterface",
      "outputs": [
        {
          "internalType": "bool",
          "name": "",
          "type": "bool"
        }
      ],
      "stateMutability": "view",
      "type": "function",
      "constant": true
    },
    {
      "inputs": [],
      "name": "symbol",
      "outputs": [
        {
          "internalType": "string",
          "name": "",
          "type": "string"
        }
      ],
      "stateMutability": "view",
      "type": "function",
      "constant": true
    },
    {
      "inputs": [
        {
          "internalType": "uint256",
          "name": "index",
          "type": "uint256"
        }
      ],
      "name": "tokenByIndex",
      "outputs": [
        {
          "internalType": "uint256",
          "name": "",
          "type": "uint256"
        }
      ],
      "stateMutability": "view",
      "type": "function",
      "constant": true
    },
    {
      "inputs": [
        {
          "internalType": "address",
          "name": "owner",
          "type": "address"
        },
        {
          "internalType": "uint256",
          "name": "index",
          "type": "uint256"
        }
      ],
      "name": "tokenOfOwnerByIndex",
      "outputs": [
        {
          "internalType": "uint256",
          "name": "",
          "type": "uint256"
        }
      ],
      "stateMutability": "view",
      "type": "function",
      "constant": true
    },
    {
      "inputs": [
        {
          "internalType": "uint256",
          "name": "tokenId",
          "type": "uint256"
        }
      ],
      "name": "tokenURI",
      "outputs": [
        {
          "internalType": "string",
          "name": "",
          "type": "string"
        }
      ],
      "stateMutability": "view",
      "type": "function",
      "constant": true
    },
    {
      "inputs": [],
      "name": "totalSupply",
      "outputs": [
        {
          "internalType": "uint256",
          "name": "",
          "type": "uint256"
        }
      ],
      "stateMutability": "view",
      "type": "function",
      "constant": true
    },
    {
      "inputs": [
        {
          "internalType": "address",
          "name": "from",
          "type": "address"
        },
        {
          "internalType": "address",
          "name": "to",
          "type": "address"
        },
        {
          "internalType": "uint256",
          "name": "tokenId",
          "type": "uint256"
        }
      ],
      "name": "transferFrom",
      "outputs": [],
      "stateMutability": "nonpayable",
      "type": "function"
    },
    {
      "inputs": [
        {
          "internalType": "address",
          "name": "newOwner",
          "type": "address"
        }
      ],
      "name": "transferOwnership",
      "outputs": [],
      "stateMutability": "nonpayable",
      "type": "function"
    },
    {
      "inputs": [
        {
          "internalType": "uint256",
          "name": "libertyLevel",
          "type": "uint256"
        },
        {
          "internalType": "uint256",
          "name": "anarchyLevel",
          "type": "uint256"
        },
        {
          "internalType": "uint256",
          "name": "tacosLevel",
          "type": "uint256"
        },
        {
          "internalType": "uint256",
          "name": "kissesLevel",
          "type": "uint256"
        },
        {
          "internalType": "uint256",
          "name": "bitcoinLevel",
          "type": "uint256"
        },
        {
          "internalType": "uint256",
          "name": "privacyLevel",
          "type": "uint256"
        },
        {
          "internalType": "uint256",
          "name": "spirtualityLevel",
          "type": "uint256"
        },
        {
          "internalType": "uint256",
          "name": "agoraLevel",
          "type": "uint256"
        },
        {
          "internalType": "uint256",
          "name": "ogLevel",
          "type": "uint256"
        },
        {
          "internalType": "string",
          "name": "name",
          "type": "string"
        }
      ],
      "name": "mintSpeaker",
      "outputs": [],
      "stateMutability": "nonpayable",
      "type": "function"
    },
    {
      "inputs": [
        {
          "internalType": "uint256",
          "name": "tokenId",
          "type": "uint256"
        }
      ],
      "name": "getTokenURI",
      "outputs": [
        {
          "internalType": "string",
          "name": "",
          "type": "string"
        }
      ],
      "stateMutability": "view",
      "type": "function",
      "constant": true
    },
    {
      "inputs": [
        {
          "internalType": "uint256",
          "name": "tokenId",
          "type": "uint256"
        },
        {
          "internalType": "string",
          "name": "_tokenURI",
          "type": "string"
        }
      ],
      "name": "setTokenURI",
      "outputs": [],
      "stateMutability": "nonpayable",
      "type": "function"
    },
    {
      "inputs": [],
      "name": "getNumberOfSpeakers",
      "outputs": [
        {
          "internalType": "uint256",
          "name": "",
          "type": "uint256"
        }
      ],
      "stateMutability": "view",
      "type": "function",
      "constant": true
    },
    {
      "inputs": [
        {
          "internalType": "uint256",
          "name": "tokenId",
          "type": "uint256"
        }
      ],
      "name": "getSpeakersOverView",
      "outputs": [
        {
          "internalType": "string",
          "name": "",
          "type": "string"
        },
        {
          "internalType": "uint256",
          "name": "",
          "type": "uint256"
        }
      ],
      "stateMutability": "view",
      "type": "function",
      "constant": true
    },
    {
      "inputs": [
        {
          "internalType": "uint256",
          "name": "tokenId",
          "type": "uint256"
        }
      ],
      "name": "getSpeakerStats",
      "outputs": [
        {
          "components": [
            {
              "internalType": "uint256",
              "name": "libertyLevel",
              "type": "uint256"
            },
            {
              "internalType": "uint256",
              "name": "anarchyLevel",
              "type": "uint256"
            },
            {
              "internalType": "uint256",
              "name": "tacosLevel",
              "type": "uint256"
            },
            {
              "internalType": "uint256",
              "name": "kissesLevel",
              "type": "uint256"
            },
            {
              "internalType": "uint256",
              "name": "bitcoinLevel",
              "type": "uint256"
            },
            {
              "internalType": "uint256",
              "name": "privacyLevel",
              "type": "uint256"
            },
            {
              "internalType": "uint256",
              "name": "spirtualityLevel",
              "type": "uint256"
            },
            {
              "internalType": "uint256",
              "name": "agoraLevel",
              "type": "uint256"
            },
            {
              "internalType": "uint256",
              "name": "ogLevel",
              "type": "uint256"
            },
            {
              "internalType": "string",
              "name": "name",
              "type": "string"
            }
          ],
          "internalType": "struct Anarchapulco.Speaker",
          "name": "",
          "type": "tuple"
        }
      ],
      "stateMutability": "view",
      "type": "function",
      "constant": true
    }
  ],
  "bytecode": "0x60806040523480156200001157600080fd5b506040518060400160405280601381526020017f416e617263686170756c636f537065616b6572000000000000000000000000008152506040518060400160405280600781526020017f4252454154484500000000000000000000000000000000000000000000000000815250620000966301ffc9a760e01b6200020a60201b60201c565b8160069080519060200190620000ae929190620002ea565b508060079080519060200190620000c7929190620002ea565b50620000e06380ac58cd60e01b6200020a60201b60201c565b620000f8635b5e139f60e01b6200020a60201b60201c565b6200011063780e9d6360e01b6200020a60201b60201c565b5050600062000124620002e260201b60201c565b905080600a60006101000a81548173ffffffffffffffffffffffffffffffffffffffff021916908373ffffffffffffffffffffffffffffffffffffffff1602179055508073ffffffffffffffffffffffffffffffffffffffff16600073ffffffffffffffffffffffffffffffffffffffff167f8be0079c531659141344cd1fd0a4f28419497f9722a3daafe3b4186f6b6457e060405160405180910390a35033600b60006101000a81548173ffffffffffffffffffffffffffffffffffffffff021916908373ffffffffffffffffffffffffffffffffffffffff1602179055506200040e565b63ffffffff60e01b817bffffffffffffffffffffffffffffffffffffffffffffffffffffffff1916141562000276576040517f08c379a00000000000000000000000000000000000000000000000000000000081526004016200026d90620003db565b60405180910390fd5b6001600080837bffffffffffffffffffffffffffffffffffffffffffffffffffffffff19167bffffffffffffffffffffffffffffffffffffffffffffffffffffffff1916815260200190815260200160002060006101000a81548160ff02191690831515021790555050565b600033905090565b828054600181600116156101000203166002900490600052602060002090601f016020900481019282601f106200032d57805160ff19168380011785556200035e565b828001600101855582156200035e579182015b828111156200035d57825182559160200191906001019062000340565b5b5090506200036d919062000371565b5090565b6200039691905b808211156200039257600081600090555060010162000378565b5090565b90565b6000620003a8601c83620003fd565b91507f4552433136353a20696e76616c696420696e74657266616365206964000000006000830152602082019050919050565b60006020820190508181036000830152620003f68162000399565b9050919050565b600082825260208201905092915050565b613f8f806200041e6000396000f3fe608060405234801561001057600080fd5b50600436106101a95760003560e01c806351ac0650116100f95780639cbbd59e11610097578063b88d4fde11610071578063b88d4fde146104fe578063c87b56dd1461051a578063e985e9c51461054a578063f2fde38b1461057a576101a9565b80639cbbd59e14610494578063a22cb465146104c4578063b41165f8146104e0576101a9565b806370a08231116100d357806370a082311461041e578063715018a61461044e5780638da5cb5b1461045857806395d89b4114610476576101a9565b806351ac0650146103975780636352211e146103d05780636c0360eb14610400576101a9565b806318160ddd116101665780633740b80a116101405780633740b80a146102ff5780633bb3a24d1461031b57806342842e0e1461034b5780634f6ccce714610367576101a9565b806318160ddd1461029557806323b872dd146102b35780632f745c59146102cf576101a9565b806301ffc9a7146101ae578063057e720e146101de57806306fdde031461020f578063081812fc1461022d578063095ea7b31461025d578063162094c414610279575b600080fd5b6101c860048036038101906101c39190612ca5565b610596565b6040516101d59190613903565b60405180910390f35b6101f860048036038101906101f39190612cf7565b6105fd565b604051610206929190613940565b60405180910390f35b610217610803565b604051610224919061391e565b60405180910390f35b61024760048036038101906102429190612cf7565b6108a5565b604051610254919061389c565b60405180910390f35b61027760048036038101906102729190612c69565b61092a565b005b610293600480360381019061028e9190612d20565b610a42565b005b61029d610aa0565b6040516102aa9190613c12565b60405180910390f35b6102cd60048036038101906102c89190612b63565b610ab1565b005b6102e960048036038101906102e49190612c69565b610b11565b6040516102f69190613c12565b60405180910390f35b61031960048036038101906103149190612d74565b610b6c565b005b61033560048036038101906103309190612cf7565b610d09565b604051610342919061391e565b60405180910390f35b61036560048036038101906103609190612b63565b610d1b565b005b610381600480360381019061037c9190612cf7565b610d3b565b60405161038e9190613c12565b60405180910390f35b6103b160048036038101906103ac9190612cf7565b610d5e565b6040516103c79a99989796959493929190613c2d565b60405180910390f35b6103ea60048036038101906103e59190612cf7565b610e57565b6040516103f7919061389c565b60405180910390f35b610408610e8e565b604051610415919061391e565b60405180910390f35b61043860048036038101906104339190612afe565b610f30565b6040516104459190613c12565b60405180910390f35b610456610fef565b005b610460611147565b60405161046d919061389c565b60405180910390f35b61047e611171565b60405161048b919061391e565b60405180910390f35b6104ae60048036038101906104a99190612cf7565b611213565b6040516104bb9190613bf0565b60405180910390f35b6104de60048036038101906104d99190612c2d565b611345565b005b6104e86114c6565b6040516104f59190613c12565b60405180910390f35b61051860048036038101906105139190612bb2565b6114d3565b005b610534600480360381019061052f9190612cf7565b611535565b604051610541919061391e565b60405180910390f35b610564600480360381019061055f9190612b27565b6116c0565b6040516105719190613903565b60405180910390f35b610594600480360381019061058f9190612afe565b611754565b005b6000806000837bffffffffffffffffffffffffffffffffffffffffffffffffffffffff19167bffffffffffffffffffffffffffffffffffffffffffffffffffffffff1916815260200190815260200160002060009054906101000a900460ff169050919050565b60606000600c838154811061060e57fe5b90600052602060002090600a0201600901600c848154811061062c57fe5b90600052602060002090600a020160080154600c858154811061064b57fe5b90600052602060002090600a020160070154600c868154811061066a57fe5b90600052602060002090600a020160060154600c878154811061068957fe5b90600052602060002090600a020160050154600c88815481106106a857fe5b90600052602060002090600a020160040154600c89815481106106c757fe5b90600052602060002090600a020160050154600c8a815481106106e657fe5b90600052602060002090600a020160030154600c8b8154811061070557fe5b90600052602060002090600a020160020154600c8c8154811061072457fe5b90600052602060002090600a020160010154600c8d8154811061074357fe5b90600052602060002090600a020160000154010101010101010101818054600181600116156101000203166002900480601f0160208091040260200160405190810160405280929190818152602001828054600181600116156101000203166002900480156107f35780601f106107c8576101008083540402835291602001916107f3565b820191906000526020600020905b8154815290600101906020018083116107d657829003601f168201915b5050505050915091509150915091565b606060068054600181600116156101000203166002900480601f01602080910402602001604051908101604052809291908181526020018280546001816001161561010002031660029004801561089b5780601f106108705761010080835404028352916020019161089b565b820191906000526020600020905b81548152906001019060200180831161087e57829003601f168201915b5050505050905090565b60006108b08261191b565b6108ef576040517f08c379a00000000000000000000000000000000000000000000000000000000081526004016108e690613af0565b60405180910390fd5b6004600083815260200190815260200160002060009054906101000a900473ffffffffffffffffffffffffffffffffffffffff169050919050565b600061093582610e57565b90508073ffffffffffffffffffffffffffffffffffffffff168373ffffffffffffffffffffffffffffffffffffffff1614156109a6576040517f08c379a000000000000000000000000000000000000000000000000000000000815260040161099d90613b90565b60405180910390fd5b8073ffffffffffffffffffffffffffffffffffffffff166109c5611938565b73ffffffffffffffffffffffffffffffffffffffff1614806109f457506109f3816109ee611938565b6116c0565b5b610a33576040517f08c379a0000000000000000000000000000000000000000000000000000000008152600401610a2a90613a70565b60405180910390fd5b610a3d8383611940565b505050565b610a53610a4d611938565b836119f9565b610a92576040517f08c379a0000000000000000000000000000000000000000000000000000000008152600401610a8990613bb0565b60405180910390fd5b610a9c8282611ad7565b5050565b6000610aac6002611b4b565b905090565b610ac2610abc611938565b826119f9565b610b01576040517f08c379a0000000000000000000000000000000000000000000000000000000008152600401610af890613bb0565b60405180910390fd5b610b0c838383611b60565b505050565b6000610b6482600160008673ffffffffffffffffffffffffffffffffffffffff1673ffffffffffffffffffffffffffffffffffffffff168152602001908152602001600020611d7790919063ffffffff16565b905092915050565b600b60009054906101000a900473ffffffffffffffffffffffffffffffffffffffff1673ffffffffffffffffffffffffffffffffffffffff163373ffffffffffffffffffffffffffffffffffffffff1614610bfc576040517f08c379a0000000000000000000000000000000000000000000000000000000008152600401610bf390613a50565b60405180910390fd5b6000600c805490509050600c6040518061014001604052808d81526020018c81526020018b81526020018a81526020018981526020018881526020018781526020018681526020018581526020018481525090806001815401808255809150506001900390600052602060002090600a0201600090919091909150600082015181600001556020820151816001015560408201518160020155606082015181600301556080820151816004015560a0820151816005015560c0820151816006015560e082015181600701556101008201518160080155610120820151816009019080519060200190610cef9291906128f5565b505050610cfc3382611d91565b5050505050505050505050565b6060610d1482611535565b9050919050565b610d36838383604051806020016040528060008152506114d3565b505050565b600080610d52836002611daf90919063ffffffff16565b50905080915050919050565b600c8181548110610d6b57fe5b90600052602060002090600a0201600091509050806000015490806001015490806002015490806003015490806004015490806005015490806006015490806007015490806008015490806009018054600181600116156101000203166002900480601f016020809104026020016040519081016040528092919081815260200182805460018160011615610100020316600290048015610e4d5780601f10610e2257610100808354040283529160200191610e4d565b820191906000526020600020905b815481529060010190602001808311610e3057829003601f168201915b505050505090508a565b6000610e8782604051806060016040528060298152602001613f31602991396002611dde9092919063ffffffff16565b9050919050565b606060098054600181600116156101000203166002900480601f016020809104026020016040519081016040528092919081815260200182805460018160011615610100020316600290048015610f265780601f10610efb57610100808354040283529160200191610f26565b820191906000526020600020905b815481529060010190602001808311610f0957829003601f168201915b5050505050905090565b60008073ffffffffffffffffffffffffffffffffffffffff168273ffffffffffffffffffffffffffffffffffffffff161415610fa1576040517f08c379a0000000000000000000000000000000000000000000000000000000008152600401610f9890613a90565b60405180910390fd5b610fe8600160008473ffffffffffffffffffffffffffffffffffffffff1673ffffffffffffffffffffffffffffffffffffffff168152602001908152602001600020611dfd565b9050919050565b610ff7611938565b73ffffffffffffffffffffffffffffffffffffffff16600a60009054906101000a900473ffffffffffffffffffffffffffffffffffffffff1673ffffffffffffffffffffffffffffffffffffffff1614611086576040517f08c379a000000000000000000000000000000000000000000000000000000000815260040161107d90613b30565b60405180910390fd5b600073ffffffffffffffffffffffffffffffffffffffff16600a60009054906101000a900473ffffffffffffffffffffffffffffffffffffffff1673ffffffffffffffffffffffffffffffffffffffff167f8be0079c531659141344cd1fd0a4f28419497f9722a3daafe3b4186f6b6457e060405160405180910390a36000600a60006101000a81548173ffffffffffffffffffffffffffffffffffffffff021916908373ffffffffffffffffffffffffffffffffffffffff160217905550565b6000600a60009054906101000a900473ffffffffffffffffffffffffffffffffffffffff16905090565b606060078054600181600116156101000203166002900480601f0160208091040260200160405190810160405280929190818152602001828054600181600116156101000203166002900480156112095780601f106111de57610100808354040283529160200191611209565b820191906000526020600020905b8154815290600101906020018083116111ec57829003601f168201915b5050505050905090565b61121b612975565b600c828154811061122857fe5b90600052602060002090600a020160405180610140016040529081600082015481526020016001820154815260200160028201548152602001600382015481526020016004820154815260200160058201548152602001600682015481526020016007820154815260200160088201548152602001600982018054600181600116156101000203166002900480601f0160208091040260200160405190810160405280929190818152602001828054600181600116156101000203166002900480156113355780601f1061130a57610100808354040283529160200191611335565b820191906000526020600020905b81548152906001019060200180831161131857829003601f168201915b5050505050815250509050919050565b61134d611938565b73ffffffffffffffffffffffffffffffffffffffff168273ffffffffffffffffffffffffffffffffffffffff1614156113bb576040517f08c379a00000000000000000000000000000000000000000000000000000000081526004016113b290613a10565b60405180910390fd5b80600560006113c8611938565b73ffffffffffffffffffffffffffffffffffffffff1673ffffffffffffffffffffffffffffffffffffffff16815260200190815260200160002060008473ffffffffffffffffffffffffffffffffffffffff1673ffffffffffffffffffffffffffffffffffffffff16815260200190815260200160002060006101000a81548160ff0219169083151502179055508173ffffffffffffffffffffffffffffffffffffffff16611475611938565b73ffffffffffffffffffffffffffffffffffffffff167f17307eab39ab6107e8899845ad3d59bd9653f200f220920489ca2b5937696c31836040516114ba9190613903565b60405180910390a35050565b6000600c80549050905090565b6114e46114de611938565b836119f9565b611523576040517f08c379a000000000000000000000000000000000000000000000000000000000815260040161151a90613bb0565b60405180910390fd5b61152f84848484611e12565b50505050565b60606115408261191b565b61157f576040517f08c379a000000000000000000000000000000000000000000000000000000000815260040161157690613b70565b60405180910390fd5b6060600860008481526020019081526020016000208054600181600116156101000203166002900480601f0160208091040260200160405190810160405280929190818152602001828054600181600116156101000203166002900480156116285780601f106115fd57610100808354040283529160200191611628565b820191906000526020600020905b81548152906001019060200180831161160b57829003601f168201915b5050505050905060006009805460018160011615610100020316600290049050141561165757809150506116bb565b60008151111561168c57600981604051602001611675929190613878565b6040516020818303038152906040529150506116bb565b600961169784611e6e565b6040516020016116a8929190613878565b6040516020818303038152906040529150505b919050565b6000600560008473ffffffffffffffffffffffffffffffffffffffff1673ffffffffffffffffffffffffffffffffffffffff16815260200190815260200160002060008373ffffffffffffffffffffffffffffffffffffffff1673ffffffffffffffffffffffffffffffffffffffff16815260200190815260200160002060009054906101000a900460ff16905092915050565b61175c611938565b73ffffffffffffffffffffffffffffffffffffffff16600a60009054906101000a900473ffffffffffffffffffffffffffffffffffffffff1673ffffffffffffffffffffffffffffffffffffffff16146117eb576040517f08c379a00000000000000000000000000000000000000000000000000000000081526004016117e290613b30565b60405180910390fd5b600073ffffffffffffffffffffffffffffffffffffffff168173ffffffffffffffffffffffffffffffffffffffff16141561185b576040517f08c379a0000000000000000000000000000000000000000000000000000000008152600401611852906139b0565b60405180910390fd5b8073ffffffffffffffffffffffffffffffffffffffff16600a60009054906101000a900473ffffffffffffffffffffffffffffffffffffffff1673ffffffffffffffffffffffffffffffffffffffff167f8be0079c531659141344cd1fd0a4f28419497f9722a3daafe3b4186f6b6457e060405160405180910390a380600a60006101000a81548173ffffffffffffffffffffffffffffffffffffffff021916908373ffffffffffffffffffffffffffffffffffffffff16021790555050565b6000611931826002611fb590919063ffffffff16565b9050919050565b600033905090565b816004600083815260200190815260200160002060006101000a81548173ffffffffffffffffffffffffffffffffffffffff021916908373ffffffffffffffffffffffffffffffffffffffff160217905550808273ffffffffffffffffffffffffffffffffffffffff166119b383610e57565b73ffffffffffffffffffffffffffffffffffffffff167f8c5be1e5ebec7d5bd14f71427d1e84f3dd0314c0f7b2291e5b200ac8c7c3b92560405160405180910390a45050565b6000611a048261191b565b611a43576040517f08c379a0000000000000000000000000000000000000000000000000000000008152600401611a3a90613a30565b60405180910390fd5b6000611a4e83610e57565b90508073ffffffffffffffffffffffffffffffffffffffff168473ffffffffffffffffffffffffffffffffffffffff161480611abd57508373ffffffffffffffffffffffffffffffffffffffff16611aa5846108a5565b73ffffffffffffffffffffffffffffffffffffffff16145b80611ace5750611acd81856116c0565b5b91505092915050565b611ae08261191b565b611b1f576040517f08c379a0000000000000000000000000000000000000000000000000000000008152600401611b1690613b10565b60405180910390fd5b80600860008481526020019081526020016000209080519060200190611b469291906128f5565b505050565b6000611b5982600001611fcf565b9050919050565b8273ffffffffffffffffffffffffffffffffffffffff16611b8082610e57565b73ffffffffffffffffffffffffffffffffffffffff1614611bd6576040517f08c379a0000000000000000000000000000000000000000000000000000000008152600401611bcd90613b50565b60405180910390fd5b600073ffffffffffffffffffffffffffffffffffffffff168273ffffffffffffffffffffffffffffffffffffffff161415611c46576040517f08c379a0000000000000000000000000000000000000000000000000000000008152600401611c3d906139f0565b60405180910390fd5b611c51838383611fe0565b611c5c600082611940565b611cad81600160008673ffffffffffffffffffffffffffffffffffffffff1673ffffffffffffffffffffffffffffffffffffffff168152602001908152602001600020611fe590919063ffffffff16565b50611cff81600160008573ffffffffffffffffffffffffffffffffffffffff1673ffffffffffffffffffffffffffffffffffffffff168152602001908152602001600020611fff90919063ffffffff16565b50611d16818360026120199092919063ffffffff16565b50808273ffffffffffffffffffffffffffffffffffffffff168473ffffffffffffffffffffffffffffffffffffffff167fddf252ad1be2c89b69c2b068fc378daa952ba7f163c4a11628f55a4df523b3ef60405160405180910390a4505050565b6000611d86836000018361204e565b60001c905092915050565b611dab8282604051806020016040528060008152506120bb565b5050565b600080600080611dc28660000186612116565b915091508160001c8160001c8090509350935050509250929050565b6000611df1846000018460001b84612199565b60001c90509392505050565b6000611e0b8260000161222a565b9050919050565b611e1d848484611b60565b611e298484848461223b565b611e68576040517f08c379a0000000000000000000000000000000000000000000000000000000008152600401611e5f90613990565b60405180910390fd5b50505050565b60606000821415611eb6576040518060400160405280600181526020017f30000000000000000000000000000000000000000000000000000000000000008152509050611fb0565b600082905060005b60008214611ee0578080600101915050600a8281611ed857fe5b049150611ebe565b60608167ffffffffffffffff81118015611ef957600080fd5b506040519080825280601f01601f191660200182016040528015611f2c5781602001600182028036833780820191505090505b50905060006001830390508593505b60008414611fa857600a8481611f4d57fe5b0660300160f81b82828060019003935081518110611f6757fe5b60200101907effffffffffffffffffffffffffffffffffffffffffffffffffffffffffffff1916908160001a905350600a8481611fa057fe5b049350611f3b565b819450505050505b919050565b6000611fc7836000018360001b61239f565b905092915050565b600081600001805490509050919050565b505050565b6000611ff7836000018360001b6123c2565b905092915050565b6000612011836000018360001b6124aa565b905092915050565b6000612045846000018460001b8473ffffffffffffffffffffffffffffffffffffffff1660001b61251a565b90509392505050565b600081836000018054905011612099576040517f08c379a000000000000000000000000000000000000000000000000000000000815260040161209090613970565b60405180910390fd5b8260000182815481106120a857fe5b9060005260206000200154905092915050565b6120c583836125f6565b6120d2600084848461223b565b612111576040517f08c379a000000000000000000000000000000000000000000000000000000000815260040161210890613990565b60405180910390fd5b505050565b60008082846000018054905011612162576040517f08c379a000000000000000000000000000000000000000000000000000000000815260040161215990613ab0565b60405180910390fd5b600084600001848154811061217357fe5b906000526020600020906002020190508060000154816001015492509250509250929050565b600080846001016000858152602001908152602001600020549050600081141583906121fb576040517f08c379a00000000000000000000000000000000000000000000000000000000081526004016121f2919061391e565b60405180910390fd5b5084600001600182038154811061220e57fe5b9060005260206000209060020201600101549150509392505050565b600081600001805490509050919050565b600061225c8473ffffffffffffffffffffffffffffffffffffffff16612784565b6122695760019050612397565b606061233063150b7a0260e01b61227e611938565b88878760405160240161229494939291906138b7565b604051602081830303815290604052907bffffffffffffffffffffffffffffffffffffffffffffffffffffffff19166020820180517bffffffffffffffffffffffffffffffffffffffffffffffffffffffff8381831617835250505050604051806060016040528060328152602001613eff603291398773ffffffffffffffffffffffffffffffffffffffff166127979092919063ffffffff16565b90506000818060200190518101906123489190612cce565b905063150b7a0260e01b7bffffffffffffffffffffffffffffffffffffffffffffffffffffffff1916817bffffffffffffffffffffffffffffffffffffffffffffffffffffffff191614925050505b949350505050565b600080836001016000848152602001908152602001600020541415905092915050565b6000808360010160008481526020019081526020016000205490506000811461249e576000600182039050600060018660000180549050039050600086600001828154811061240d57fe5b906000526020600020015490508087600001848154811061242a57fe5b906000526020600020018190555060018301876001016000838152602001908152602001600020819055508660000180548061246257fe5b600190038181906000526020600020016000905590558660010160008781526020019081526020016000206000905560019450505050506124a4565b60009150505b92915050565b60006124b683836127af565b61250f578260000182908060018154018082558091505060019003906000526020600020016000909190919091505582600001805490508360010160008481526020019081526020016000208190555060019050612514565b600090505b92915050565b60008084600101600085815260200190815260200160002054905060008114156125c1578460000160405180604001604052808681526020018581525090806001815401808255809150506001900390600052602060002090600202016000909190919091506000820151816000015560208201518160010155505084600001805490508560010160008681526020019081526020016000208190555060019150506125ef565b828560000160018303815481106125d457fe5b90600052602060002090600202016001018190555060009150505b9392505050565b600073ffffffffffffffffffffffffffffffffffffffff168273ffffffffffffffffffffffffffffffffffffffff161415612666576040517f08c379a000000000000000000000000000000000000000000000000000000000815260040161265d90613ad0565b60405180910390fd5b61266f8161191b565b156126af576040517f08c379a00000000000000000000000000000000000000000000000000000000081526004016126a6906139d0565b60405180910390fd5b6126bb60008383611fe0565b61270c81600160008573ffffffffffffffffffffffffffffffffffffffff1673ffffffffffffffffffffffffffffffffffffffff168152602001908152602001600020611fff90919063ffffffff16565b50612723818360026120199092919063ffffffff16565b50808273ffffffffffffffffffffffffffffffffffffffff16600073ffffffffffffffffffffffffffffffffffffffff167fddf252ad1be2c89b69c2b068fc378daa952ba7f163c4a11628f55a4df523b3ef60405160405180910390a45050565b600080823b905060008111915050919050565b60606127a684846000856127d2565b90509392505050565b600080836001016000848152602001908152602001600020541415905092915050565b60606127dd85612784565b61281c576040517f08c379a000000000000000000000000000000000000000000000000000000000815260040161281390613bd0565b60405180910390fd5b600060608673ffffffffffffffffffffffffffffffffffffffff1685876040516128469190613861565b60006040518083038185875af1925050503d8060008114612883576040519150601f19603f3d011682016040523d82523d6000602084013e612888565b606091505b5091509150811561289d5780925050506128ed565b6000815111156128b05780518082602001fd5b836040517f08c379a00000000000000000000000000000000000000000000000000000000081526004016128e4919061391e565b60405180910390fd5b949350505050565b828054600181600116156101000203166002900490600052602060002090601f016020900481019282601f1061293657805160ff1916838001178555612964565b82800160010185558215612964579182015b82811115612963578251825591602001919060010190612948565b5b50905061297191906129c8565b5090565b604051806101400160405280600081526020016000815260200160008152602001600081526020016000815260200160008152602001600081526020016000815260200160008152602001606081525090565b6129ea91905b808211156129e65760008160009055506001016129ce565b5090565b90565b6000813590506129fc81613ea2565b92915050565b600081359050612a1181613eb9565b92915050565b600081359050612a2681613ed0565b92915050565b600081519050612a3b81613ed0565b92915050565b600082601f830112612a5257600080fd5b8135612a65612a6082613cfd565b613cd0565b91508082526020830160208301858383011115612a8157600080fd5b612a8c838284613e4f565b50505092915050565b600082601f830112612aa657600080fd5b8135612ab9612ab482613d29565b613cd0565b91508082526020830160208301858383011115612ad557600080fd5b612ae0838284613e4f565b50505092915050565b600081359050612af881613ee7565b92915050565b600060208284031215612b1057600080fd5b6000612b1e848285016129ed565b91505092915050565b60008060408385031215612b3a57600080fd5b6000612b48858286016129ed565b9250506020612b59858286016129ed565b9150509250929050565b600080600060608486031215612b7857600080fd5b6000612b86868287016129ed565b9350506020612b97868287016129ed565b9250506040612ba886828701612ae9565b9150509250925092565b60008060008060808587031215612bc857600080fd5b6000612bd6878288016129ed565b9450506020612be7878288016129ed565b9350506040612bf887828801612ae9565b925050606085013567ffffffffffffffff811115612c1557600080fd5b612c2187828801612a41565b91505092959194509250565b60008060408385031215612c4057600080fd5b6000612c4e858286016129ed565b9250506020612c5f85828601612a02565b9150509250929050565b60008060408385031215612c7c57600080fd5b6000612c8a858286016129ed565b9250506020612c9b85828601612ae9565b9150509250929050565b600060208284031215612cb757600080fd5b6000612cc584828501612a17565b91505092915050565b600060208284031215612ce057600080fd5b6000612cee84828501612a2c565b91505092915050565b600060208284031215612d0957600080fd5b6000612d1784828501612ae9565b91505092915050565b60008060408385031215612d3357600080fd5b6000612d4185828601612ae9565b925050602083013567ffffffffffffffff811115612d5e57600080fd5b612d6a85828601612a95565b9150509250929050565b6000806000806000806000806000806101408b8d031215612d9457600080fd5b6000612da28d828e01612ae9565b9a50506020612db38d828e01612ae9565b9950506040612dc48d828e01612ae9565b9850506060612dd58d828e01612ae9565b9750506080612de68d828e01612ae9565b96505060a0612df78d828e01612ae9565b95505060c0612e088d828e01612ae9565b94505060e0612e198d828e01612ae9565b935050610100612e2b8d828e01612ae9565b9250506101208b013567ffffffffffffffff811115612e4957600080fd5b612e558d828e01612a95565b9150509295989b9194979a5092959850565b612e7081613ddb565b82525050565b612e7f81613dc9565b82525050565b612e8e81613ded565b82525050565b6000612e9f82613d6a565b612ea98185613d80565b9350612eb9818560208601613e5e565b612ec281613e91565b840191505092915050565b6000612ed882613d6a565b612ee28185613d91565b9350612ef2818560208601613e5e565b80840191505092915050565b6000612f0982613d75565b612f138185613d9c565b9350612f23818560208601613e5e565b612f2c81613e91565b840191505092915050565b6000612f4282613d75565b612f4c8185613dad565b9350612f5c818560208601613e5e565b612f6581613e91565b840191505092915050565b6000612f7b82613d75565b612f858185613dbe565b9350612f95818560208601613e5e565b80840191505092915050565b600081546001811660008114612fbe5760018114612fe357613027565b607f6002830416612fcf8187613dbe565b955060ff1983168652808601935050613027565b60028204612ff18187613dbe565b9550612ffc85613d55565b60005b8281101561301e57815481890152600182019150602081019050612fff565b82880195505050505b505092915050565b600061303c602283613dad565b91507f456e756d657261626c655365743a20696e646578206f7574206f6620626f756e60008301527f64730000000000000000000000000000000000000000000000000000000000006020830152604082019050919050565b60006130a2603283613dad565b91507f4552433732313a207472616e7366657220746f206e6f6e20455243373231526560008301527f63656976657220696d706c656d656e74657200000000000000000000000000006020830152604082019050919050565b6000613108602683613dad565b91507f4f776e61626c653a206e6577206f776e657220697320746865207a65726f206160008301527f64647265737300000000000000000000000000000000000000000000000000006020830152604082019050919050565b600061316e601c83613dad565b91507f4552433732313a20746f6b656e20616c7265616479206d696e746564000000006000830152602082019050919050565b60006131ae602483613dad565b91507f4552433732313a207472616e7366657220746f20746865207a65726f2061646460008301527f72657373000000000000000000000000000000000000000000000000000000006020830152604082019050919050565b6000613214601983613dad565b91507f4552433732313a20617070726f766520746f2063616c6c6572000000000000006000830152602082019050919050565b6000613254602c83613dad565b91507f4552433732313a206f70657261746f7220717565727920666f72206e6f6e657860008301527f697374656e7420746f6b656e00000000000000000000000000000000000000006020830152604082019050919050565b60006132ba603483613dad565b91507f4f6e6c79207468652063726561746f72206f66207468697320636f6e7472616360008301527f742063616e206d696e74206e6577204e465427730000000000000000000000006020830152604082019050919050565b6000613320603883613dad565b91507f4552433732313a20617070726f76652063616c6c6572206973206e6f74206f7760008301527f6e6572206e6f7220617070726f76656420666f7220616c6c00000000000000006020830152604082019050919050565b6000613386602a83613dad565b91507f4552433732313a2062616c616e636520717565727920666f7220746865207a6560008301527f726f2061646472657373000000000000000000000000000000000000000000006020830152604082019050919050565b60006133ec602283613dad565b91507f456e756d657261626c654d61703a20696e646578206f7574206f6620626f756e60008301527f64730000000000000000000000000000000000000000000000000000000000006020830152604082019050919050565b6000613452602083613dad565b91507f4552433732313a206d696e7420746f20746865207a65726f20616464726573736000830152602082019050919050565b6000613492602c83613dad565b91507f4552433732313a20617070726f76656420717565727920666f72206e6f6e657860008301527f697374656e7420746f6b656e00000000000000000000000000000000000000006020830152604082019050919050565b60006134f8602c83613dad565b91507f4552433732314d657461646174613a2055524920736574206f66206e6f6e657860008301527f697374656e7420746f6b656e00000000000000000000000000000000000000006020830152604082019050919050565b600061355e602083613dad565b91507f4f776e61626c653a2063616c6c6572206973206e6f7420746865206f776e65726000830152602082019050919050565b600061359e602983613dad565b91507f4552433732313a207472616e73666572206f6620746f6b656e2074686174206960008301527f73206e6f74206f776e00000000000000000000000000000000000000000000006020830152604082019050919050565b6000613604602f83613dad565b91507f4552433732314d657461646174613a2055524920717565727920666f72206e6f60008301527f6e6578697374656e7420746f6b656e00000000000000000000000000000000006020830152604082019050919050565b600061366a602183613dad565b91507f4552433732313a20617070726f76616c20746f2063757272656e74206f776e6560008301527f72000000000000000000000000000000000000000000000000000000000000006020830152604082019050919050565b60006136d0603183613dad565b91507f4552433732313a207472616e736665722063616c6c6572206973206e6f74206f60008301527f776e6572206e6f7220617070726f7665640000000000000000000000000000006020830152604082019050919050565b6000613736601d83613dad565b91507f416464726573733a2063616c6c20746f206e6f6e2d636f6e74726163740000006000830152602082019050919050565b6000610140830160008301516137826000860182613843565b5060208301516137956020860182613843565b5060408301516137a86040860182613843565b5060608301516137bb6060860182613843565b5060808301516137ce6080860182613843565b5060a08301516137e160a0860182613843565b5060c08301516137f460c0860182613843565b5060e083015161380760e0860182613843565b5061010083015161381c610100860182613843565b506101208301518482036101208601526138368282612efe565b9150508091505092915050565b61384c81613e45565b82525050565b61385b81613e45565b82525050565b600061386d8284612ecd565b915081905092915050565b60006138848285612fa1565b91506138908284612f70565b91508190509392505050565b60006020820190506138b16000830184612e76565b92915050565b60006080820190506138cc6000830187612e67565b6138d96020830186612e76565b6138e66040830185613852565b81810360608301526138f88184612e94565b905095945050505050565b60006020820190506139186000830184612e85565b92915050565b600060208201905081810360008301526139388184612f37565b905092915050565b6000604082019050818103600083015261395a8185612f37565b90506139696020830184613852565b9392505050565b600060208201905081810360008301526139898161302f565b9050919050565b600060208201905081810360008301526139a981613095565b9050919050565b600060208201905081810360008301526139c9816130fb565b9050919050565b600060208201905081810360008301526139e981613161565b9050919050565b60006020820190508181036000830152613a09816131a1565b9050919050565b60006020820190508181036000830152613a2981613207565b9050919050565b60006020820190508181036000830152613a4981613247565b9050919050565b60006020820190508181036000830152613a69816132ad565b9050919050565b60006020820190508181036000830152613a8981613313565b9050919050565b60006020820190508181036000830152613aa981613379565b9050919050565b60006020820190508181036000830152613ac9816133df565b9050919050565b60006020820190508181036000830152613ae981613445565b9050919050565b60006020820190508181036000830152613b0981613485565b9050919050565b60006020820190508181036000830152613b29816134eb565b9050919050565b60006020820190508181036000830152613b4981613551565b9050919050565b60006020820190508181036000830152613b6981613591565b9050919050565b60006020820190508181036000830152613b89816135f7565b9050919050565b60006020820190508181036000830152613ba98161365d565b9050919050565b60006020820190508181036000830152613bc9816136c3565b9050919050565b60006020820190508181036000830152613be981613729565b9050919050565b60006020820190508181036000830152613c0a8184613769565b905092915050565b6000602082019050613c276000830184613852565b92915050565b600061014082019050613c43600083018d613852565b613c50602083018c613852565b613c5d604083018b613852565b613c6a606083018a613852565b613c776080830189613852565b613c8460a0830188613852565b613c9160c0830187613852565b613c9e60e0830186613852565b613cac610100830185613852565b818103610120830152613cbf8184612f37565b90509b9a5050505050505050505050565b6000604051905081810181811067ffffffffffffffff82111715613cf357600080fd5b8060405250919050565b600067ffffffffffffffff821115613d1457600080fd5b601f19601f8301169050602081019050919050565b600067ffffffffffffffff821115613d4057600080fd5b601f19601f8301169050602081019050919050565b60008190508160005260206000209050919050565b600081519050919050565b600081519050919050565b600082825260208201905092915050565b600081905092915050565b600082825260208201905092915050565b600082825260208201905092915050565b600081905092915050565b6000613dd482613e25565b9050919050565b6000613de682613e25565b9050919050565b60008115159050919050565b60007fffffffff0000000000000000000000000000000000000000000000000000000082169050919050565b600073ffffffffffffffffffffffffffffffffffffffff82169050919050565b6000819050919050565b82818337600083830152505050565b60005b83811015613e7c578082015181840152602081019050613e61565b83811115613e8b576000848401525b50505050565b6000601f19601f8301169050919050565b613eab81613dc9565b8114613eb657600080fd5b50565b613ec281613ded565b8114613ecd57600080fd5b50565b613ed981613df9565b8114613ee457600080fd5b50565b613ef081613e45565b8114613efb57600080fd5b5056fe4552433732313a207472616e7366657220746f206e6f6e20455243373231526563656976657220696d706c656d656e7465724552433732313a206f776e657220717565727920666f72206e6f6e6578697374656e7420746f6b656ea26469706673582212204c1e0922b945c92a9b7ba4d14e8810dfbb2ad78f02c42516ff2ab1867b709a1664736f6c63430006060033",
  "immutableReferences": {},
  "source": "// SPDX-License-Identifier: MIT\npragma solidity ^0.6.6;\npragma experimental ABIEncoderV2;\n\nimport \"@openzeppelin/contracts/token/ERC721/ERC721.sol\";\nimport \"@chainlink/contracts/src/v0.6/VRFConsumerBase.sol\";\nimport \"@openzeppelin/contracts/access/Ownable.sol\";\nimport \"@openzeppelin/contracts/utils/Strings.sol\";\n\ncontract Anarchapulco is ERC721, Ownable {\n    using SafeMath for uint256;\n    using Strings for string;\n    address private creator;\n    struct Speaker {\n        uint256 libertyLevel;\n        uint256 anarchyLevel;\n        uint256 tacosLevel;\n        uint256 kissesLevel;\n        uint256 bitcoinLevel;\n        uint256 privacyLevel;\n        uint256 spirtualityLevel;\n        uint256 agoraLevel;\n        uint256 ogLevel;\n        string name;\n    }\n\n    Speaker[] public speakers;\n\n    constructor() public ERC721(\"AnarchapulcoSpeaker\", \"BREATHE\") {\n        creator = msg.sender;\n    }\n\n    function mintSpeaker(uint256 libertyLevel, uint256 anarchyLevel, uint256 tacosLevel, uint256 kissesLevel, uint256 bitcoinLevel, uint256 privacyLevel, uint256 spirtualityLevel, uint256 agoraLevel, uint256 ogLevel, string memory name) public {\n        require(\n            msg.sender == creator,\n            \"Only the creator of this contract can mint new NFT's\"\n        );\n        uint256 newId = speakers.length;\n        speakers.push(\n            Speaker(\n                libertyLevel,\n                anarchyLevel,\n                tacosLevel,\n                kissesLevel,\n                bitcoinLevel,\n                privacyLevel,\n                spirtualityLevel,\n                agoraLevel,\n                ogLevel,\n                name\n            )\n        );\n        _safeMint(msg.sender, newId);\n    }\n\n    function getTokenURI(uint256 tokenId) public view returns (string memory) {\n        return tokenURI(tokenId);\n    }\n\n    function setTokenURI(uint256 tokenId, string memory _tokenURI) public {\n        require(\n            _isApprovedOrOwner(_msgSender(), tokenId),\n            \"ERC721: transfer caller is not owner nor approved\"\n        );\n        _setTokenURI(tokenId, _tokenURI);\n    }\n\n    function getNumberOfSpeakers() public view returns (uint256) {\n        return speakers.length;\n    }\n\n    function getSpeakersOverView(uint256 tokenId)\n        public\n        view\n        returns (string memory, uint256)\n    {\n        return (\n            speakers[tokenId].name,\n            speakers[tokenId].libertyLevel +\n            speakers[tokenId].anarchyLevel +\n            speakers[tokenId].tacosLevel +\n            speakers[tokenId].kissesLevel +\n            speakers[tokenId].privacyLevel +\n            speakers[tokenId].bitcoinLevel +\n            speakers[tokenId].privacyLevel +\n            speakers[tokenId].spirtualityLevel +\n            speakers[tokenId].agoraLevel +\n            speakers[tokenId].ogLevel\n        );\n    }\n\n    function getSpeakerStats(uint256 tokenId)\n        public\n        view\n        returns (\n            Speaker memory\n        )\n    {\n        return (\n            speakers[tokenId]\n        );\n    }\n}\n",
  "sourcePath": "/Users/nolanjacobson/ERC-677-NFTS/contracts/Anarchapulco.sol",
  "compiler": {
    "name": "solc",
    "version": "0.6.6+commit.6c089d02.Emscripten.clang"
  },
  "schemaVersion": "3.3.2",
  "updatedAt": "2021-02-15T06:09:05.142Z",
  "networkType": "ethereum",
  "devdoc": {
    "methods": {
      "approve(address,uint256)": {
        "details": "See {IERC721-approve}."
      },
      "balanceOf(address)": {
        "details": "See {IERC721-balanceOf}."
      },
      "baseURI()": {
        "details": "Returns the base URI set via {_setBaseURI}. This will be automatically added as a prefix in {tokenURI} to each token's URI, or to the token ID if no specific URI is set for that token ID."
      },
      "getApproved(uint256)": {
        "details": "See {IERC721-getApproved}."
      },
      "isApprovedForAll(address,address)": {
        "details": "See {IERC721-isApprovedForAll}."
      },
      "name()": {
        "details": "See {IERC721Metadata-name}."
      },
      "owner()": {
        "details": "Returns the address of the current owner."
      },
      "ownerOf(uint256)": {
        "details": "See {IERC721-ownerOf}."
      },
      "renounceOwnership()": {
        "details": "Leaves the contract without owner. It will not be possible to call `onlyOwner` functions anymore. Can only be called by the current owner.     * NOTE: Renouncing ownership will leave the contract without an owner, thereby removing any functionality that is only available to the owner."
      },
      "safeTransferFrom(address,address,uint256)": {
        "details": "See {IERC721-safeTransferFrom}."
      },
      "safeTransferFrom(address,address,uint256,bytes)": {
        "details": "See {IERC721-safeTransferFrom}."
      },
      "setApprovalForAll(address,bool)": {
        "details": "See {IERC721-setApprovalForAll}."
      },
      "supportsInterface(bytes4)": {
        "details": "See {IERC165-supportsInterface}.     * Time complexity O(1), guaranteed to always use less than 30 000 gas."
      },
      "symbol()": {
        "details": "See {IERC721Metadata-symbol}."
      },
      "tokenByIndex(uint256)": {
        "details": "See {IERC721Enumerable-tokenByIndex}."
      },
      "tokenOfOwnerByIndex(address,uint256)": {
        "details": "See {IERC721Enumerable-tokenOfOwnerByIndex}."
      },
      "tokenURI(uint256)": {
        "details": "See {IERC721Metadata-tokenURI}."
      },
      "totalSupply()": {
        "details": "See {IERC721Enumerable-totalSupply}."
      },
      "transferFrom(address,address,uint256)": {
        "details": "See {IERC721-transferFrom}."
      },
      "transferOwnership(address)": {
        "details": "Transfers ownership of the contract to a new account (`newOwner`). Can only be called by the current owner."
      }
    }
  },
  "userdoc": {
    "methods": {}
  }
}