{
  "contractName": "LucyAndJeff",
  "abi": [
    {
      "inputs": [],
      "stateMutability": "nonpayable",
      "type": "constructor"
    },
    {
      "anonymous": false,
      "inputs": [
        {
          "indexed": true,
          "internalType": "address",
          "name": "owner",
          "type": "address"
        },
        {
          "indexed": true,
          "internalType": "address",
          "name": "approved",
          "type": "address"
        },
        {
          "indexed": true,
          "internalType": "uint256",
          "name": "tokenId",
          "type": "uint256"
        }
      ],
      "name": "Approval",
      "type": "event"
    },
    {
      "anonymous": false,
      "inputs": [
        {
          "indexed": true,
          "internalType": "address",
          "name": "owner",
          "type": "address"
        },
        {
          "indexed": true,
          "internalType": "address",
          "name": "operator",
          "type": "address"
        },
        {
          "indexed": false,
          "internalType": "bool",
          "name": "approved",
          "type": "bool"
        }
      ],
      "name": "ApprovalForAll",
      "type": "event"
    },
    {
      "anonymous": false,
      "inputs": [
        {
          "indexed": true,
          "internalType": "address",
          "name": "previousOwner",
          "type": "address"
        },
        {
          "indexed": true,
          "internalType": "address",
          "name": "newOwner",
          "type": "address"
        }
      ],
      "name": "OwnershipTransferred",
      "type": "event"
    },
    {
      "anonymous": false,
      "inputs": [
        {
          "indexed": true,
          "internalType": "address",
          "name": "from",
          "type": "address"
        },
        {
          "indexed": true,
          "internalType": "address",
          "name": "to",
          "type": "address"
        },
        {
          "indexed": true,
          "internalType": "uint256",
          "name": "tokenId",
          "type": "uint256"
        }
      ],
      "name": "Transfer",
      "type": "event"
    },
    {
      "inputs": [
        {
          "internalType": "address",
          "name": "to",
          "type": "address"
        },
        {
          "internalType": "uint256",
          "name": "tokenId",
          "type": "uint256"
        }
      ],
      "name": "approve",
      "outputs": [],
      "stateMutability": "nonpayable",
      "type": "function"
    },
    {
      "inputs": [
        {
          "internalType": "address",
          "name": "owner",
          "type": "address"
        }
      ],
      "name": "balanceOf",
      "outputs": [
        {
          "internalType": "uint256",
          "name": "",
          "type": "uint256"
        }
      ],
      "stateMutability": "view",
      "type": "function",
      "constant": true
    },
    {
      "inputs": [],
      "name": "baseURI",
      "outputs": [
        {
          "internalType": "string",
          "name": "",
          "type": "string"
        }
      ],
      "stateMutability": "view",
      "type": "function",
      "constant": true
    },
    {
      "inputs": [
        {
          "internalType": "uint256",
          "name": "tokenId",
          "type": "uint256"
        }
      ],
      "name": "getApproved",
      "outputs": [
        {
          "internalType": "address",
          "name": "",
          "type": "address"
        }
      ],
      "stateMutability": "view",
      "type": "function",
      "constant": true
    },
    {
      "inputs": [
        {
          "internalType": "address",
          "name": "owner",
          "type": "address"
        },
        {
          "internalType": "address",
          "name": "operator",
          "type": "address"
        }
      ],
      "name": "isApprovedForAll",
      "outputs": [
        {
          "internalType": "bool",
          "name": "",
          "type": "bool"
        }
      ],
      "stateMutability": "view",
      "type": "function",
      "constant": true
    },
    {
      "inputs": [],
      "name": "name",
      "outputs": [
        {
          "internalType": "string",
          "name": "",
          "type": "string"
        }
      ],
      "stateMutability": "view",
      "type": "function",
      "constant": true
    },
    {
      "inputs": [],
      "name": "owner",
      "outputs": [
        {
          "internalType": "address",
          "name": "",
          "type": "address"
        }
      ],
      "stateMutability": "view",
      "type": "function",
      "constant": true
    },
    {
      "inputs": [
        {
          "internalType": "uint256",
          "name": "tokenId",
          "type": "uint256"
        }
      ],
      "name": "ownerOf",
      "outputs": [
        {
          "internalType": "address",
          "name": "",
          "type": "address"
        }
      ],
      "stateMutability": "view",
      "type": "function",
      "constant": true
    },
    {
      "inputs": [
        {
          "internalType": "uint256",
          "name": "",
          "type": "uint256"
        }
      ],
      "name": "properties",
      "outputs": [
        {
          "internalType": "uint256",
          "name": "liberty",
          "type": "uint256"
        },
        {
          "internalType": "uint256",
          "name": "anarchy",
          "type": "uint256"
        },
        {
          "internalType": "uint256",
          "name": "tacos",
          "type": "uint256"
        },
        {
          "internalType": "uint256",
          "name": "kisses",
          "type": "uint256"
        },
        {
          "internalType": "uint256",
          "name": "bitcoin",
          "type": "uint256"
        },
        {
          "internalType": "uint256",
          "name": "monero",
          "type": "uint256"
        },
        {
          "internalType": "string",
          "name": "name",
          "type": "string"
        }
      ],
      "stateMutability": "view",
      "type": "function",
      "constant": true
    },
    {
      "inputs": [],
      "name": "renounceOwnership",
      "outputs": [],
      "stateMutability": "nonpayable",
      "type": "function"
    },
    {
      "inputs": [
        {
          "internalType": "address",
          "name": "from",
          "type": "address"
        },
        {
          "internalType": "address",
          "name": "to",
          "type": "address"
        },
        {
          "internalType": "uint256",
          "name": "tokenId",
          "type": "uint256"
        }
      ],
      "name": "safeTransferFrom",
      "outputs": [],
      "stateMutability": "nonpayable",
      "type": "function"
    },
    {
      "inputs": [
        {
          "internalType": "address",
          "name": "from",
          "type": "address"
        },
        {
          "internalType": "address",
          "name": "to",
          "type": "address"
        },
        {
          "internalType": "uint256",
          "name": "tokenId",
          "type": "uint256"
        },
        {
          "internalType": "bytes",
          "name": "_data",
          "type": "bytes"
        }
      ],
      "name": "safeTransferFrom",
      "outputs": [],
      "stateMutability": "nonpayable",
      "type": "function"
    },
    {
      "inputs": [
        {
          "internalType": "address",
          "name": "operator",
          "type": "address"
        },
        {
          "internalType": "bool",
          "name": "approved",
          "type": "bool"
        }
      ],
      "name": "setApprovalForAll",
      "outputs": [],
      "stateMutability": "nonpayable",
      "type": "function"
    },
    {
      "inputs": [
        {
          "internalType": "bytes4",
          "name": "interfaceId",
          "type": "bytes4"
        }
      ],
      "name": "supportsInterface",
      "outputs": [
        {
          "internalType": "bool",
          "name": "",
          "type": "bool"
        }
      ],
      "stateMutability": "view",
      "type": "function",
      "constant": true
    },
    {
      "inputs": [],
      "name": "symbol",
      "outputs": [
        {
          "internalType": "string",
          "name": "",
          "type": "string"
        }
      ],
      "stateMutability": "view",
      "type": "function",
      "constant": true
    },
    {
      "inputs": [
        {
          "internalType": "uint256",
          "name": "index",
          "type": "uint256"
        }
      ],
      "name": "tokenByIndex",
      "outputs": [
        {
          "internalType": "uint256",
          "name": "",
          "type": "uint256"
        }
      ],
      "stateMutability": "view",
      "type": "function",
      "constant": true
    },
    {
      "inputs": [
        {
          "internalType": "address",
          "name": "owner",
          "type": "address"
        },
        {
          "internalType": "uint256",
          "name": "index",
          "type": "uint256"
        }
      ],
      "name": "tokenOfOwnerByIndex",
      "outputs": [
        {
          "internalType": "uint256",
          "name": "",
          "type": "uint256"
        }
      ],
      "stateMutability": "view",
      "type": "function",
      "constant": true
    },
    {
      "inputs": [
        {
          "internalType": "uint256",
          "name": "tokenId",
          "type": "uint256"
        }
      ],
      "name": "tokenURI",
      "outputs": [
        {
          "internalType": "string",
          "name": "",
          "type": "string"
        }
      ],
      "stateMutability": "view",
      "type": "function",
      "constant": true
    },
    {
      "inputs": [],
      "name": "totalSupply",
      "outputs": [
        {
          "internalType": "uint256",
          "name": "",
          "type": "uint256"
        }
      ],
      "stateMutability": "view",
      "type": "function",
      "constant": true
    },
    {
      "inputs": [
        {
          "internalType": "address",
          "name": "from",
          "type": "address"
        },
        {
          "internalType": "address",
          "name": "to",
          "type": "address"
        },
        {
          "internalType": "uint256",
          "name": "tokenId",
          "type": "uint256"
        }
      ],
      "name": "transferFrom",
      "outputs": [],
      "stateMutability": "nonpayable",
      "type": "function"
    },
    {
      "inputs": [
        {
          "internalType": "address",
          "name": "newOwner",
          "type": "address"
        }
      ],
      "name": "transferOwnership",
      "outputs": [],
      "stateMutability": "nonpayable",
      "type": "function"
    },
    {
      "inputs": [
        {
          "internalType": "uint256",
          "name": "tokenId",
          "type": "uint256"
        }
      ],
      "name": "getTokenURI",
      "outputs": [
        {
          "internalType": "string",
          "name": "",
          "type": "string"
        }
      ],
      "stateMutability": "view",
      "type": "function",
      "constant": true
    },
    {
      "inputs": [
        {
          "internalType": "uint256",
          "name": "tokenId",
          "type": "uint256"
        },
        {
          "internalType": "string",
          "name": "_tokenURI",
          "type": "string"
        }
      ],
      "name": "setTokenURI",
      "outputs": [],
      "stateMutability": "nonpayable",
      "type": "function"
    },
    {
      "inputs": [],
      "name": "getNumberOfLucyAndJeff",
      "outputs": [
        {
          "internalType": "uint256",
          "name": "",
          "type": "uint256"
        }
      ],
      "stateMutability": "view",
      "type": "function",
      "constant": true
    },
    {
      "inputs": [
        {
          "internalType": "uint256",
          "name": "tokenId",
          "type": "uint256"
        }
      ],
      "name": "getLucyAndJeffOverView",
      "outputs": [
        {
          "internalType": "string",
          "name": "",
          "type": "string"
        },
        {
          "internalType": "uint256",
          "name": "",
          "type": "uint256"
        }
      ],
      "stateMutability": "view",
      "type": "function",
      "constant": true
    },
    {
      "inputs": [
        {
          "internalType": "uint256",
          "name": "tokenId",
          "type": "uint256"
        }
      ],
      "name": "getLucyAndJeffStats",
      "outputs": [
        {
          "internalType": "uint256",
          "name": "",
          "type": "uint256"
        },
        {
          "internalType": "uint256",
          "name": "",
          "type": "uint256"
        },
        {
          "internalType": "uint256",
          "name": "",
          "type": "uint256"
        },
        {
          "internalType": "uint256",
          "name": "",
          "type": "uint256"
        },
        {
          "internalType": "uint256",
          "name": "",
          "type": "uint256"
        },
        {
          "internalType": "uint256",
          "name": "",
          "type": "uint256"
        }
      ],
      "stateMutability": "view",
      "type": "function",
      "constant": true
    }
  ],
  "bytecode": "0x60806040523480156200001157600080fd5b506040518060400160405280600b81526020017f4a656666416e644c7563790000000000000000000000000000000000000000008152506040518060400160405280600381526020017f4a264c0000000000000000000000000000000000000000000000000000000000815250620000966301ffc9a760e01b620001c960201b60201c565b8160069080519060200190620000ae929190620002da565b508060079080519060200190620000c7929190620002da565b50620000e06380ac58cd60e01b620001c960201b60201c565b620000f8635b5e139f60e01b620001c960201b60201c565b6200011063780e9d6360e01b620001c960201b60201c565b5050600062000124620002d260201b60201c565b905080600a60006101000a81548173ffffffffffffffffffffffffffffffffffffffff021916908373ffffffffffffffffffffffffffffffffffffffff1602179055508073ffffffffffffffffffffffffffffffffffffffff16600073ffffffffffffffffffffffffffffffffffffffff167f8be0079c531659141344cd1fd0a4f28419497f9722a3daafe3b4186f6b6457e060405160405180910390a35062000389565b63ffffffff60e01b817bffffffffffffffffffffffffffffffffffffffffffffffffffffffff1916141562000266576040517f08c379a000000000000000000000000000000000000000000000000000000000815260040180806020018281038252601c8152602001807f4552433136353a20696e76616c696420696e746572666163652069640000000081525060200191505060405180910390fd5b6001600080837bffffffffffffffffffffffffffffffffffffffffffffffffffffffff19167bffffffffffffffffffffffffffffffffffffffffffffffffffffffff1916815260200190815260200160002060006101000a81548160ff02191690831515021790555050565b600033905090565b828054600181600116156101000203166002900490600052602060002090601f016020900481019282601f106200031d57805160ff19168380011785556200034e565b828001600101855582156200034e579182015b828111156200034d57825182559160200191906001019062000330565b5b5090506200035d919062000361565b5090565b6200038691905b808211156200038257600081600090555060010162000368565b5090565b90565b6134b080620003996000396000f3fe608060405234801561001057600080fd5b506004361061018e5760003560e01c80636c0360eb116100de578063a22cb46511610097578063d97cc07111610071578063d97cc07114610b70578063e985e9c514610b8e578063f2fde38b14610c0a578063f7b1080814610c4e5761018e565b8063a22cb46514610974578063b88d4fde146109c4578063c87b56dd14610ac95761018e565b80636c0360eb1461075d57806370a08231146107e0578063715018a6146108385780638da5cb5b146108425780638f2290281461088c57806395d89b41146108f15761018e565b806318160ddd1161014b5780633bb3a24d116101255780633bb3a24d1461059857806342842e0e1461063f5780634f6ccce7146106ad5780636352211e146106ef5761018e565b806318160ddd146104aa57806323b872dd146104c85780632f745c59146105365761018e565b806301ffc9a71461019357806306fdde03146101f8578063081812fc1461027b578063095ea7b3146102e9578063133cfeb914610337578063162094c4146103e5575b600080fd5b6101de600480360360208110156101a957600080fd5b8101908080357bffffffffffffffffffffffffffffffffffffffffffffffffffffffff19169060200190929190505050610d1f565b604051808215151515815260200191505060405180910390f35b610200610d86565b6040518080602001828103825283818151815260200191508051906020019080838360005b83811015610240578082015181840152602081019050610225565b50505050905090810190601f16801561026d5780820380516001836020036101000a031916815260200191505b509250505060405180910390f35b6102a76004803603602081101561029157600080fd5b8101908080359060200190929190505050610e28565b604051808273ffffffffffffffffffffffffffffffffffffffff1673ffffffffffffffffffffffffffffffffffffffff16815260200191505060405180910390f35b610335600480360360408110156102ff57600080fd5b81019080803573ffffffffffffffffffffffffffffffffffffffff16906020019092919080359060200190929190505050610ec3565b005b6103636004803603602081101561034d57600080fd5b8101908080359060200190929190505050611007565b6040518080602001838152602001828103825284818151815260200191508051906020019080838360005b838110156103a957808201518184015260208101905061038e565b50505050905090810190601f1680156103d65780820380516001836020036101000a031916815260200191505b50935050505060405180910390f35b6104a8600480360360408110156103fb57600080fd5b81019080803590602001909291908035906020019064010000000081111561042257600080fd5b82018360208201111561043457600080fd5b8035906020019184600183028401116401000000008311171561045657600080fd5b91908080601f016020809104026020016040519081016040528093929190818152602001838380828437600081840152601f19601f82011690508083019250505050505050919291929050505061118d565b005b6104b2611201565b6040518082815260200191505060405180910390f35b610534600480360360608110156104de57600080fd5b81019080803573ffffffffffffffffffffffffffffffffffffffff169060200190929190803573ffffffffffffffffffffffffffffffffffffffff16906020019092919080359060200190929190505050611212565b005b6105826004803603604081101561054c57600080fd5b81019080803573ffffffffffffffffffffffffffffffffffffffff16906020019092919080359060200190929190505050611288565b6040518082815260200191505060405180910390f35b6105c4600480360360208110156105ae57600080fd5b81019080803590602001909291905050506112e3565b6040518080602001828103825283818151815260200191508051906020019080838360005b838110156106045780820151818401526020810190506105e9565b50505050905090810190601f1680156106315780820380516001836020036101000a031916815260200191505b509250505060405180910390f35b6106ab6004803603606081101561065557600080fd5b81019080803573ffffffffffffffffffffffffffffffffffffffff169060200190929190803573ffffffffffffffffffffffffffffffffffffffff169060200190929190803590602001909291905050506112f5565b005b6106d9600480360360208110156106c357600080fd5b8101908080359060200190929190505050611315565b6040518082815260200191505060405180910390f35b61071b6004803603602081101561070557600080fd5b8101908080359060200190929190505050611338565b604051808273ffffffffffffffffffffffffffffffffffffffff1673ffffffffffffffffffffffffffffffffffffffff16815260200191505060405180910390f35b61076561136f565b6040518080602001828103825283818151815260200191508051906020019080838360005b838110156107a557808201518184015260208101905061078a565b50505050905090810190601f1680156107d25780820380516001836020036101000a031916815260200191505b509250505060405180910390f35b610822600480360360208110156107f657600080fd5b81019080803573ffffffffffffffffffffffffffffffffffffffff169060200190929190505050611411565b6040518082815260200191505060405180910390f35b6108406114e6565b005b61084a611671565b604051808273ffffffffffffffffffffffffffffffffffffffff1673ffffffffffffffffffffffffffffffffffffffff16815260200191505060405180910390f35b6108b8600480360360208110156108a257600080fd5b810190808035906020019092919050505061169b565b60405180878152602001868152602001858152602001848152602001838152602001828152602001965050505050505060405180910390f35b6108f9611773565b6040518080602001828103825283818151815260200191508051906020019080838360005b8381101561093957808201518184015260208101905061091e565b50505050905090810190601f1680156109665780820380516001836020036101000a031916815260200191505b509250505060405180910390f35b6109c26004803603604081101561098a57600080fd5b81019080803573ffffffffffffffffffffffffffffffffffffffff169060200190929190803515159060200190929190505050611815565b005b610ac7600480360360808110156109da57600080fd5b81019080803573ffffffffffffffffffffffffffffffffffffffff169060200190929190803573ffffffffffffffffffffffffffffffffffffffff1690602001909291908035906020019092919080359060200190640100000000811115610a4157600080fd5b820183602082011115610a5357600080fd5b80359060200191846001830284011164010000000083111715610a7557600080fd5b91908080601f016020809104026020016040519081016040528093929190818152602001838380828437600081840152601f19601f8201169050808301925050505050505091929192905050506119cd565b005b610af560048036036020811015610adf57600080fd5b8101908080359060200190929190505050611a45565b6040518080602001828103825283818151815260200191508051906020019080838360005b83811015610b35578082015181840152602081019050610b1a565b50505050905090810190601f168015610b625780820380516001836020036101000a031916815260200191505b509250505060405180910390f35b610b78611d2e565b6040518082815260200191505060405180910390f35b610bf060048036036040811015610ba457600080fd5b81019080803573ffffffffffffffffffffffffffffffffffffffff169060200190929190803573ffffffffffffffffffffffffffffffffffffffff169060200190929190505050611d3b565b604051808215151515815260200191505060405180910390f35b610c4c60048036036020811015610c2057600080fd5b81019080803573ffffffffffffffffffffffffffffffffffffffff169060200190929190505050611dcf565b005b610c7a60048036036020811015610c6457600080fd5b8101908080359060200190929190505050611fdf565b6040518088815260200187815260200186815260200185815260200184815260200183815260200180602001828103825283818151815260200191508051906020019080838360005b83811015610cde578082015181840152602081019050610cc3565b50505050905090810190601f168015610d0b5780820380516001836020036101000a031916815260200191505b509850505050505050505060405180910390f35b6000806000837bffffffffffffffffffffffffffffffffffffffffffffffffffffffff19167bffffffffffffffffffffffffffffffffffffffffffffffffffffffff1916815260200190815260200160002060009054906101000a900460ff169050919050565b606060068054600181600116156101000203166002900480601f016020809104026020016040519081016040528092919081815260200182805460018160011615610100020316600290048015610e1e5780601f10610df357610100808354040283529160200191610e1e565b820191906000526020600020905b815481529060010190602001808311610e0157829003601f168201915b5050505050905090565b6000610e33826120c6565b610e88576040517f08c379a000000000000000000000000000000000000000000000000000000000815260040180806020018281038252602c815260200180613379602c913960400191505060405180910390fd5b6004600083815260200190815260200160002060009054906101000a900473ffffffffffffffffffffffffffffffffffffffff169050919050565b6000610ece82611338565b90508073ffffffffffffffffffffffffffffffffffffffff168373ffffffffffffffffffffffffffffffffffffffff161415610f55576040517f08c379a00000000000000000000000000000000000000000000000000000000081526004018080602001828103825260218152602001806134296021913960400191505060405180910390fd5b8073ffffffffffffffffffffffffffffffffffffffff16610f746120e3565b73ffffffffffffffffffffffffffffffffffffffff161480610fa35750610fa281610f9d6120e3565b611d3b565b5b610ff8576040517f08c379a00000000000000000000000000000000000000000000000000000000081526004018080602001828103825260388152602001806132cc6038913960400191505060405180910390fd5b61100283836120eb565b505050565b60606000600b838154811061101857fe5b9060005260206000209060070201600601600b848154811061103657fe5b906000526020600020906007020160040154600b858154811061105557fe5b906000526020600020906007020160050154600b868154811061107457fe5b906000526020600020906007020160030154600b878154811061109357fe5b906000526020600020906007020160020154600b88815481106110b257fe5b906000526020600020906007020160010154600b89815481106110d157fe5b9060005260206000209060070201600001540101010101818054600181600116156101000203166002900480601f01602080910402602001604051908101604052809291908181526020018280546001816001161561010002031660029004801561117d5780601f106111525761010080835404028352916020019161117d565b820191906000526020600020905b81548152906001019060200180831161116057829003601f168201915b5050505050915091509150915091565b61119e6111986120e3565b836121a4565b6111f3576040517f08c379a000000000000000000000000000000000000000000000000000000000815260040180806020018281038252603181526020018061344a6031913960400191505060405180910390fd5b6111fd8282612298565b5050565b600061120d6002612322565b905090565b61122361121d6120e3565b826121a4565b611278576040517f08c379a000000000000000000000000000000000000000000000000000000000815260040180806020018281038252603181526020018061344a6031913960400191505060405180910390fd5b611283838383612337565b505050565b60006112db82600160008673ffffffffffffffffffffffffffffffffffffffff1673ffffffffffffffffffffffffffffffffffffffff16815260200190815260200160002061257a90919063ffffffff16565b905092915050565b60606112ee82611a45565b9050919050565b611310838383604051806020016040528060008152506119cd565b505050565b60008061132c83600261259490919063ffffffff16565b50905080915050919050565b60006113688260405180606001604052806029815260200161332e6029913960026125c39092919063ffffffff16565b9050919050565b606060098054600181600116156101000203166002900480601f0160208091040260200160405190810160405280929190818152602001828054600181600116156101000203166002900480156114075780601f106113dc57610100808354040283529160200191611407565b820191906000526020600020905b8154815290600101906020018083116113ea57829003601f168201915b5050505050905090565b60008073ffffffffffffffffffffffffffffffffffffffff168273ffffffffffffffffffffffffffffffffffffffff161415611498576040517f08c379a000000000000000000000000000000000000000000000000000000000815260040180806020018281038252602a815260200180613304602a913960400191505060405180910390fd5b6114df600160008473ffffffffffffffffffffffffffffffffffffffff1673ffffffffffffffffffffffffffffffffffffffff1681526020019081526020016000206125e2565b9050919050565b6114ee6120e3565b73ffffffffffffffffffffffffffffffffffffffff16600a60009054906101000a900473ffffffffffffffffffffffffffffffffffffffff1673ffffffffffffffffffffffffffffffffffffffff16146115b0576040517f08c379a00000000000000000000000000000000000000000000000000000000081526004018080602001828103825260208152602001807f4f776e61626c653a2063616c6c6572206973206e6f7420746865206f776e657281525060200191505060405180910390fd5b600073ffffffffffffffffffffffffffffffffffffffff16600a60009054906101000a900473ffffffffffffffffffffffffffffffffffffffff1673ffffffffffffffffffffffffffffffffffffffff167f8be0079c531659141344cd1fd0a4f28419497f9722a3daafe3b4186f6b6457e060405160405180910390a36000600a60006101000a81548173ffffffffffffffffffffffffffffffffffffffff021916908373ffffffffffffffffffffffffffffffffffffffff160217905550565b6000600a60009054906101000a900473ffffffffffffffffffffffffffffffffffffffff16905090565b600080600080600080600b87815481106116b157fe5b906000526020600020906007020160000154600b88815481106116d057fe5b906000526020600020906007020160010154600b89815481106116ef57fe5b906000526020600020906007020160020154600b8a8154811061170e57fe5b906000526020600020906007020160030154600b8b8154811061172d57fe5b906000526020600020906007020160050154600b8c8154811061174c57fe5b90600052602060002090600702016004015495509550955095509550955091939550919395565b606060078054600181600116156101000203166002900480601f01602080910402602001604051908101604052809291908181526020018280546001816001161561010002031660029004801561180b5780601f106117e05761010080835404028352916020019161180b565b820191906000526020600020905b8154815290600101906020018083116117ee57829003601f168201915b5050505050905090565b61181d6120e3565b73ffffffffffffffffffffffffffffffffffffffff168273ffffffffffffffffffffffffffffffffffffffff1614156118be576040517f08c379a00000000000000000000000000000000000000000000000000000000081526004018080602001828103825260198152602001807f4552433732313a20617070726f766520746f2063616c6c65720000000000000081525060200191505060405180910390fd5b80600560006118cb6120e3565b73ffffffffffffffffffffffffffffffffffffffff1673ffffffffffffffffffffffffffffffffffffffff16815260200190815260200160002060008473ffffffffffffffffffffffffffffffffffffffff1673ffffffffffffffffffffffffffffffffffffffff16815260200190815260200160002060006101000a81548160ff0219169083151502179055508173ffffffffffffffffffffffffffffffffffffffff166119786120e3565b73ffffffffffffffffffffffffffffffffffffffff167f17307eab39ab6107e8899845ad3d59bd9653f200f220920489ca2b5937696c3183604051808215151515815260200191505060405180910390a35050565b6119de6119d86120e3565b836121a4565b611a33576040517f08c379a000000000000000000000000000000000000000000000000000000000815260040180806020018281038252603181526020018061344a6031913960400191505060405180910390fd5b611a3f848484846125f7565b50505050565b6060611a50826120c6565b611aa5576040517f08c379a000000000000000000000000000000000000000000000000000000000815260040180806020018281038252602f8152602001806133fa602f913960400191505060405180910390fd5b6060600860008481526020019081526020016000208054600181600116156101000203166002900480601f016020809104026020016040519081016040528092919081815260200182805460018160011615610100020316600290048015611b4e5780601f10611b2357610100808354040283529160200191611b4e565b820191906000526020600020905b815481529060010190602001808311611b3157829003601f168201915b50505050509050600060098054600181600116156101000203166002900490501415611b7d5780915050611d29565b600081511115611c56576009816040516020018083805460018160011615610100020316600290048015611be85780601f10611bc6576101008083540402835291820191611be8565b820191906000526020600020905b815481529060010190602001808311611bd4575b505082805190602001908083835b60208310611c195780518252602082019150602081019050602083039250611bf6565b6001836020036101000a03801982511681845116808217855250505050505090500192505050604051602081830303815290604052915050611d29565b6009611c6184612669565b6040516020018083805460018160011615610100020316600290048015611cbf5780601f10611c9d576101008083540402835291820191611cbf565b820191906000526020600020905b815481529060010190602001808311611cab575b505082805190602001908083835b60208310611cf05780518252602082019150602081019050602083039250611ccd565b6001836020036101000a038019825116818451168082178552505050505050905001925050506040516020818303038152906040529150505b919050565b6000600b80549050905090565b6000600560008473ffffffffffffffffffffffffffffffffffffffff1673ffffffffffffffffffffffffffffffffffffffff16815260200190815260200160002060008373ffffffffffffffffffffffffffffffffffffffff1673ffffffffffffffffffffffffffffffffffffffff16815260200190815260200160002060009054906101000a900460ff16905092915050565b611dd76120e3565b73ffffffffffffffffffffffffffffffffffffffff16600a60009054906101000a900473ffffffffffffffffffffffffffffffffffffffff1673ffffffffffffffffffffffffffffffffffffffff1614611e99576040517f08c379a00000000000000000000000000000000000000000000000000000000081526004018080602001828103825260208152602001807f4f776e61626c653a2063616c6c6572206973206e6f7420746865206f776e657281525060200191505060405180910390fd5b600073ffffffffffffffffffffffffffffffffffffffff168173ffffffffffffffffffffffffffffffffffffffff161415611f1f576040517f08c379a00000000000000000000000000000000000000000000000000000000081526004018080602001828103825260268152602001806132566026913960400191505060405180910390fd5b8073ffffffffffffffffffffffffffffffffffffffff16600a60009054906101000a900473ffffffffffffffffffffffffffffffffffffffff1673ffffffffffffffffffffffffffffffffffffffff167f8be0079c531659141344cd1fd0a4f28419497f9722a3daafe3b4186f6b6457e060405160405180910390a380600a60006101000a81548173ffffffffffffffffffffffffffffffffffffffff021916908373ffffffffffffffffffffffffffffffffffffffff16021790555050565b600b8181548110611fec57fe5b9060005260206000209060070201600091509050806000015490806001015490806002015490806003015490806004015490806005015490806006018054600181600116156101000203166002900480601f0160208091040260200160405190810160405280929190818152602001828054600181600116156101000203166002900480156120bc5780601f10612091576101008083540402835291602001916120bc565b820191906000526020600020905b81548152906001019060200180831161209f57829003601f168201915b5050505050905087565b60006120dc8260026127b090919063ffffffff16565b9050919050565b600033905090565b816004600083815260200190815260200160002060006101000a81548173ffffffffffffffffffffffffffffffffffffffff021916908373ffffffffffffffffffffffffffffffffffffffff160217905550808273ffffffffffffffffffffffffffffffffffffffff1661215e83611338565b73ffffffffffffffffffffffffffffffffffffffff167f8c5be1e5ebec7d5bd14f71427d1e84f3dd0314c0f7b2291e5b200ac8c7c3b92560405160405180910390a45050565b60006121af826120c6565b612204576040517f08c379a000000000000000000000000000000000000000000000000000000000815260040180806020018281038252602c8152602001806132a0602c913960400191505060405180910390fd5b600061220f83611338565b90508073ffffffffffffffffffffffffffffffffffffffff168473ffffffffffffffffffffffffffffffffffffffff16148061227e57508373ffffffffffffffffffffffffffffffffffffffff1661226684610e28565b73ffffffffffffffffffffffffffffffffffffffff16145b8061228f575061228e8185611d3b565b5b91505092915050565b6122a1826120c6565b6122f6576040517f08c379a000000000000000000000000000000000000000000000000000000000815260040180806020018281038252602c8152602001806133a5602c913960400191505060405180910390fd5b8060086000848152602001908152602001600020908051906020019061231d92919061315c565b505050565b6000612330826000016127ca565b9050919050565b8273ffffffffffffffffffffffffffffffffffffffff1661235782611338565b73ffffffffffffffffffffffffffffffffffffffff16146123c3576040517f08c379a00000000000000000000000000000000000000000000000000000000081526004018080602001828103825260298152602001806133d16029913960400191505060405180910390fd5b600073ffffffffffffffffffffffffffffffffffffffff168273ffffffffffffffffffffffffffffffffffffffff161415612449576040517f08c379a000000000000000000000000000000000000000000000000000000000815260040180806020018281038252602481526020018061327c6024913960400191505060405180910390fd5b6124548383836127db565b61245f6000826120eb565b6124b081600160008673ffffffffffffffffffffffffffffffffffffffff1673ffffffffffffffffffffffffffffffffffffffff1681526020019081526020016000206127e090919063ffffffff16565b5061250281600160008573ffffffffffffffffffffffffffffffffffffffff1673ffffffffffffffffffffffffffffffffffffffff1681526020019081526020016000206127fa90919063ffffffff16565b50612519818360026128149092919063ffffffff16565b50808273ffffffffffffffffffffffffffffffffffffffff168473ffffffffffffffffffffffffffffffffffffffff167fddf252ad1be2c89b69c2b068fc378daa952ba7f163c4a11628f55a4df523b3ef60405160405180910390a4505050565b60006125898360000183612849565b60001c905092915050565b6000806000806125a786600001866128cc565b915091508160001c8160001c8090509350935050509250929050565b60006125d6846000018460001b84612965565b60001c90509392505050565b60006125f082600001612a5b565b9050919050565b612602848484612337565b61260e84848484612a6c565b612663576040517f08c379a00000000000000000000000000000000000000000000000000000000081526004018080602001828103825260328152602001806132246032913960400191505060405180910390fd5b50505050565b606060008214156126b1576040518060400160405280600181526020017f300000000000000000000000000000000000000000000000000000000000000081525090506127ab565b600082905060005b600082146126db578080600101915050600a82816126d357fe5b0491506126b9565b60608167ffffffffffffffff811180156126f457600080fd5b506040519080825280601f01601f1916602001820160405280156127275781602001600182028036833780820191505090505b50905060006001830390508593505b600084146127a357600a848161274857fe5b0660300160f81b8282806001900393508151811061276257fe5b60200101907effffffffffffffffffffffffffffffffffffffffffffffffffffffffffffff1916908160001a905350600a848161279b57fe5b049350612736565b819450505050505b919050565b60006127c2836000018360001b612cb1565b905092915050565b600081600001805490509050919050565b505050565b60006127f2836000018360001b612cd4565b905092915050565b600061280c836000018360001b612dbc565b905092915050565b6000612840846000018460001b8473ffffffffffffffffffffffffffffffffffffffff1660001b612e2c565b90509392505050565b6000818360000180549050116128aa576040517f08c379a00000000000000000000000000000000000000000000000000000000081526004018080602001828103825260228152602001806132026022913960400191505060405180910390fd5b8260000182815481106128b957fe5b9060005260206000200154905092915050565b6000808284600001805490501161292e576040517f08c379a00000000000000000000000000000000000000000000000000000000081526004018080602001828103825260228152602001806133576022913960400191505060405180910390fd5b600084600001848154811061293f57fe5b906000526020600020906002020190508060000154816001015492509250509250929050565b60008084600101600085815260200190815260200160002054905060008114158390612a2c576040517f08c379a00000000000000000000000000000000000000000000000000000000081526004018080602001828103825283818151815260200191508051906020019080838360005b838110156129f15780820151818401526020810190506129d6565b50505050905090810190601f168015612a1e5780820380516001836020036101000a031916815260200191505b509250505060405180910390fd5b50846000016001820381548110612a3f57fe5b9060005260206000209060020201600101549150509392505050565b600081600001805490509050919050565b6000612a8d8473ffffffffffffffffffffffffffffffffffffffff16612f08565b612a9a5760019050612ca9565b6060612c3063150b7a0260e01b612aaf6120e3565b888787604051602401808573ffffffffffffffffffffffffffffffffffffffff1673ffffffffffffffffffffffffffffffffffffffff1681526020018473ffffffffffffffffffffffffffffffffffffffff1673ffffffffffffffffffffffffffffffffffffffff16815260200183815260200180602001828103825283818151815260200191508051906020019080838360005b83811015612b5f578082015181840152602081019050612b44565b50505050905090810190601f168015612b8c5780820380516001836020036101000a031916815260200191505b5095505050505050604051602081830303815290604052907bffffffffffffffffffffffffffffffffffffffffffffffffffffffff19166020820180517bffffffffffffffffffffffffffffffffffffffffffffffffffffffff8381831617835250505050604051806060016040528060328152602001613224603291398773ffffffffffffffffffffffffffffffffffffffff16612f1b9092919063ffffffff16565b90506000818060200190516020811015612c4957600080fd5b8101908080519060200190929190505050905063150b7a0260e01b7bffffffffffffffffffffffffffffffffffffffffffffffffffffffff1916817bffffffffffffffffffffffffffffffffffffffffffffffffffffffff191614925050505b949350505050565b600080836001016000848152602001908152602001600020541415905092915050565b60008083600101600084815260200190815260200160002054905060008114612db05760006001820390506000600186600001805490500390506000866000018281548110612d1f57fe5b9060005260206000200154905080876000018481548110612d3c57fe5b9060005260206000200181905550600183018760010160008381526020019081526020016000208190555086600001805480612d7457fe5b60019003818190600052602060002001600090559055866001016000878152602001908152602001600020600090556001945050505050612db6565b60009150505b92915050565b6000612dc88383612f33565b612e21578260000182908060018154018082558091505060019003906000526020600020016000909190919091505582600001805490508360010160008481526020019081526020016000208190555060019050612e26565b600090505b92915050565b6000808460010160008581526020019081526020016000205490506000811415612ed357846000016040518060400160405280868152602001858152509080600181540180825580915050600190039060005260206000209060020201600090919091909150600082015181600001556020820151816001015550508460000180549050856001016000868152602001908152602001600020819055506001915050612f01565b82856000016001830381548110612ee657fe5b90600052602060002090600202016001018190555060009150505b9392505050565b600080823b905060008111915050919050565b6060612f2a8484600085612f56565b90509392505050565b600080836001016000848152602001908152602001600020541415905092915050565b6060612f6185612f08565b612fd3576040517f08c379a000000000000000000000000000000000000000000000000000000000815260040180806020018281038252601d8152602001807f416464726573733a2063616c6c20746f206e6f6e2d636f6e747261637400000081525060200191505060405180910390fd5b600060608673ffffffffffffffffffffffffffffffffffffffff1685876040518082805190602001908083835b602083106130235780518252602082019150602081019050602083039250613000565b6001836020036101000a03801982511681845116808217855250505050505090500191505060006040518083038185875af1925050503d8060008114613085576040519150601f19603f3d011682016040523d82523d6000602084013e61308a565b606091505b5091509150811561309f578092505050613154565b6000815111156130b25780518082602001fd5b836040517f08c379a00000000000000000000000000000000000000000000000000000000081526004018080602001828103825283818151815260200191508051906020019080838360005b838110156131195780820151818401526020810190506130fe565b50505050905090810190601f1680156131465780820380516001836020036101000a031916815260200191505b509250505060405180910390fd5b949350505050565b828054600181600116156101000203166002900490600052602060002090601f016020900481019282601f1061319d57805160ff19168380011785556131cb565b828001600101855582156131cb579182015b828111156131ca5782518255916020019190600101906131af565b5b5090506131d891906131dc565b5090565b6131fe91905b808211156131fa5760008160009055506001016131e2565b5090565b9056fe456e756d657261626c655365743a20696e646578206f7574206f6620626f756e64734552433732313a207472616e7366657220746f206e6f6e20455243373231526563656976657220696d706c656d656e7465724f776e61626c653a206e6577206f776e657220697320746865207a65726f20616464726573734552433732313a207472616e7366657220746f20746865207a65726f20616464726573734552433732313a206f70657261746f7220717565727920666f72206e6f6e6578697374656e7420746f6b656e4552433732313a20617070726f76652063616c6c6572206973206e6f74206f776e6572206e6f7220617070726f76656420666f7220616c6c4552433732313a2062616c616e636520717565727920666f7220746865207a65726f20616464726573734552433732313a206f776e657220717565727920666f72206e6f6e6578697374656e7420746f6b656e456e756d657261626c654d61703a20696e646578206f7574206f6620626f756e64734552433732313a20617070726f76656420717565727920666f72206e6f6e6578697374656e7420746f6b656e4552433732314d657461646174613a2055524920736574206f66206e6f6e6578697374656e7420746f6b656e4552433732313a207472616e73666572206f6620746f6b656e2074686174206973206e6f74206f776e4552433732314d657461646174613a2055524920717565727920666f72206e6f6e6578697374656e7420746f6b656e4552433732313a20617070726f76616c20746f2063757272656e74206f776e65724552433732313a207472616e736665722063616c6c6572206973206e6f74206f776e6572206e6f7220617070726f766564a2646970667358221220878b2b32681a4cf0ea2fc8da62e991bd9afe1d77683da4c971090cd7df2479d364736f6c63430006060033",
  "immutableReferences": {},
  "source": "// contracts/DungeonsAndDragonsCharacter.sol\n// SPDX-License-Identifier: MIT\npragma solidity ^0.6.6;\n\nimport \"@openzeppelin/contracts/token/ERC721/ERC721.sol\";\nimport \"@chainlink/contracts/src/v0.6/VRFConsumerBase.sol\";\nimport \"@openzeppelin/contracts/access/Ownable.sol\";\nimport \"@openzeppelin/contracts/utils/Strings.sol\";\n\ncontract LucyAndJeff is ERC721, Ownable {\n    using SafeMath for uint256;\n    using Strings for string;\n\n    struct Properties {\n        uint256 liberty;\n        uint256 anarchy;\n        uint256 tacos;\n        uint256 kisses;\n        uint256 bitcoin;\n        uint256 monero;\n        string name;\n    }\n\n    Properties[] public properties;\n\n    mapping(bytes32 => address) requestToSender;\n    mapping(bytes32 => uint256) requestToTokenId;\n\n    /**\n     * Constructor inherits VRFConsumerBase\n     *\n     * Network: Rinkeby\n     * Chainlink VRF Coordinator address: 0xb3dCcb4Cf7a26f6cf6B120Cf5A73875B7BBc655B\n     * LINK token address:                0x01BE23585060835E02B77ef475b0Cc51aA1e0709\n     * Key Hash: 0x2ed0feb3e7fd2022120aa84fab1945545a9f2ffc9076fd6156fa96eaff4c1311\n     */\n    constructor() public ERC721(\"LucyAndJeff\", \"L&J\") {}\n\n    function getTokenURI(uint256 tokenId) public view returns (string memory) {\n        return tokenURI(tokenId);\n    }\n\n    function setTokenURI(uint256 tokenId, string memory _tokenURI) public {\n        require(\n            _isApprovedOrOwner(_msgSender(), tokenId),\n            \"ERC721: transfer caller is not owner nor approved\"\n        );\n        _setTokenURI(tokenId, _tokenURI);\n    }\n\n    function mintLucyAndJeff() internal {\n        uint256 newId = properties.length;\n        uint256 liberty = 100;\n        uint256 anarchy = 100;\n        uint256 tacos = 100;\n        uint256 kisses = 100;\n        uint256 bitcoin = 100;\n        uint256 monero = 100;\n\n        properties.push(\n            Properties(\n                liberty,\n                anarchy,\n                tacos,\n                kisses,\n                bitcoin,\n                monero,\n                \"Jeff And Lucy\"\n            )\n        );\n        _safeMint(msg.sender, newId);\n    }\n\n    function getNumberOfLucyAndJeff() public view returns (uint256) {\n        return properties.length;\n    }\n\n    function getLucyAndJeffOverView(uint256 tokenId)\n        public\n        view\n        returns (string memory, uint256)\n    {\n        return (\n            properties[tokenId].name,\n            properties[tokenId].liberty +\n                properties[tokenId].anarchy +\n                properties[tokenId].tacos +\n                properties[tokenId].kisses +\n                properties[tokenId].monero +\n                properties[tokenId].bitcoin\n        );\n    }\n\n    function getLucyAndJeffStats(uint256 tokenId)\n        public\n        view\n        returns (\n            uint256,\n            uint256,\n            uint256,\n            uint256,\n            uint256,\n            uint256\n        )\n    {\n        return (\n            properties[tokenId].liberty,\n                properties[tokenId].anarchy,\n                properties[tokenId].tacos,\n                properties[tokenId].kisses,\n                properties[tokenId].monero,\n                properties[tokenId].bitcoin\n        );\n    }\n\n    function sqrt(uint256 x) internal view returns (uint256 y) {\n        uint256 z = (x + 1) / 2;\n        y = x;\n        while (z < y) {\n            y = z;\n            z = (x / z + z) / 2;\n        }\n    }\n}\n",
  "sourcePath": "/Users/nolanjacobson/dungeons-and-dragons-nft/contracts/LucyAndJeff.sol",
  "compiler": {
    "name": "solc",
    "version": "0.6.6+commit.6c089d02.Emscripten.clang"
  },
  "schemaVersion": "3.3.2",
  "updatedAt": "2021-02-15T02:09:18.216Z",
  "networkType": "ethereum",
  "devdoc": {
    "methods": {
      "approve(address,uint256)": {
        "details": "See {IERC721-approve}."
      },
      "balanceOf(address)": {
        "details": "See {IERC721-balanceOf}."
      },
      "baseURI()": {
        "details": "Returns the base URI set via {_setBaseURI}. This will be automatically added as a prefix in {tokenURI} to each token's URI, or to the token ID if no specific URI is set for that token ID."
      },
      "getApproved(uint256)": {
        "details": "See {IERC721-getApproved}."
      },
      "isApprovedForAll(address,address)": {
        "details": "See {IERC721-isApprovedForAll}."
      },
      "name()": {
        "details": "See {IERC721Metadata-name}."
      },
      "owner()": {
        "details": "Returns the address of the current owner."
      },
      "ownerOf(uint256)": {
        "details": "See {IERC721-ownerOf}."
      },
      "renounceOwnership()": {
        "details": "Leaves the contract without owner. It will not be possible to call `onlyOwner` functions anymore. Can only be called by the current owner.     * NOTE: Renouncing ownership will leave the contract without an owner, thereby removing any functionality that is only available to the owner."
      },
      "safeTransferFrom(address,address,uint256)": {
        "details": "See {IERC721-safeTransferFrom}."
      },
      "safeTransferFrom(address,address,uint256,bytes)": {
        "details": "See {IERC721-safeTransferFrom}."
      },
      "setApprovalForAll(address,bool)": {
        "details": "See {IERC721-setApprovalForAll}."
      },
      "supportsInterface(bytes4)": {
        "details": "See {IERC165-supportsInterface}.     * Time complexity O(1), guaranteed to always use less than 30 000 gas."
      },
      "symbol()": {
        "details": "See {IERC721Metadata-symbol}."
      },
      "tokenByIndex(uint256)": {
        "details": "See {IERC721Enumerable-tokenByIndex}."
      },
      "tokenOfOwnerByIndex(address,uint256)": {
        "details": "See {IERC721Enumerable-tokenOfOwnerByIndex}."
      },
      "tokenURI(uint256)": {
        "details": "See {IERC721Metadata-tokenURI}."
      },
      "totalSupply()": {
        "details": "See {IERC721Enumerable-totalSupply}."
      },
      "transferFrom(address,address,uint256)": {
        "details": "See {IERC721-transferFrom}."
      },
      "transferOwnership(address)": {
        "details": "Transfers ownership of the contract to a new account (`newOwner`). Can only be called by the current owner."
      }
    }
  },
  "userdoc": {
    "methods": {
      "constructor": "Constructor inherits VRFConsumerBase     * Network: Rinkeby Chainlink VRF Coordinator address: 0xb3dCcb4Cf7a26f6cf6B120Cf5A73875B7BBc655B LINK token address:                0x01BE23585060835E02B77ef475b0Cc51aA1e0709 Key Hash: 0x2ed0feb3e7fd2022120aa84fab1945545a9f2ffc9076fd6156fa96eaff4c1311"
    }
  }
}